{
  "_format": "hh-sol-artifact-1",
  "contractName": "TradeManager",
  "sourceName": "contracts/modules/TradeManager.sol",
  "abi": [
    {
      "inputs": [
        {
          "internalType": "string",
          "name": "name_",
          "type": "string"
        },
        {
          "internalType": "string",
          "name": "symbol_",
          "type": "string"
        },
        {
          "internalType": "address",
          "name": "initialOwner",
          "type": "address"
        }
      ],
      "stateMutability": "nonpayable",
      "type": "constructor"
    },
    {
      "inputs": [],
      "name": "ERC721EnumerableForbiddenBatchMint",
      "type": "error"
    },
    {
      "inputs": [
        {
          "internalType": "address",
          "name": "sender",
          "type": "address"
        },
        {
          "internalType": "uint256",
          "name": "tokenId",
          "type": "uint256"
        },
        {
          "internalType": "address",
          "name": "owner",
          "type": "address"
        }
      ],
      "name": "ERC721IncorrectOwner",
      "type": "error"
    },
    {
      "inputs": [
        {
          "internalType": "address",
          "name": "operator",
          "type": "address"
        },
        {
          "internalType": "uint256",
          "name": "tokenId",
          "type": "uint256"
        }
      ],
      "name": "ERC721InsufficientApproval",
      "type": "error"
    },
    {
      "inputs": [
        {
          "internalType": "address",
          "name": "approver",
          "type": "address"
        }
      ],
      "name": "ERC721InvalidApprover",
      "type": "error"
    },
    {
      "inputs": [
        {
          "internalType": "address",
          "name": "operator",
          "type": "address"
        }
      ],
      "name": "ERC721InvalidOperator",
      "type": "error"
    },
    {
      "inputs": [
        {
          "internalType": "address",
          "name": "owner",
          "type": "address"
        }
      ],
      "name": "ERC721InvalidOwner",
      "type": "error"
    },
    {
      "inputs": [
        {
          "internalType": "address",
          "name": "receiver",
          "type": "address"
        }
      ],
      "name": "ERC721InvalidReceiver",
      "type": "error"
    },
    {
      "inputs": [
        {
          "internalType": "address",
          "name": "sender",
          "type": "address"
        }
      ],
      "name": "ERC721InvalidSender",
      "type": "error"
    },
    {
      "inputs": [
        {
          "internalType": "uint256",
          "name": "tokenId",
          "type": "uint256"
        }
      ],
      "name": "ERC721NonexistentToken",
      "type": "error"
    },
    {
      "inputs": [
        {
          "internalType": "address",
          "name": "owner",
          "type": "address"
        },
        {
          "internalType": "uint256",
          "name": "index",
          "type": "uint256"
        }
      ],
      "name": "ERC721OutOfBoundsIndex",
      "type": "error"
    },
    {
      "inputs": [
        {
          "internalType": "address",
          "name": "owner",
          "type": "address"
        }
      ],
      "name": "OwnableInvalidOwner",
      "type": "error"
    },
    {
      "inputs": [
        {
          "internalType": "address",
          "name": "account",
          "type": "address"
        }
      ],
      "name": "OwnableUnauthorizedAccount",
      "type": "error"
    },
    {
      "anonymous": false,
      "inputs": [
        {
          "indexed": true,
          "internalType": "address",
          "name": "owner",
          "type": "address"
        },
        {
          "indexed": true,
          "internalType": "address",
          "name": "approved",
          "type": "address"
        },
        {
          "indexed": true,
          "internalType": "uint256",
          "name": "tokenId",
          "type": "uint256"
        }
      ],
      "name": "Approval",
      "type": "event"
    },
    {
      "anonymous": false,
      "inputs": [
        {
          "indexed": true,
          "internalType": "address",
          "name": "owner",
          "type": "address"
        },
        {
          "indexed": true,
          "internalType": "address",
          "name": "operator",
          "type": "address"
        },
        {
          "indexed": false,
          "internalType": "bool",
          "name": "approved",
          "type": "bool"
        }
      ],
      "name": "ApprovalForAll",
      "type": "event"
    },
    {
      "anonymous": false,
      "inputs": [
        {
          "indexed": false,
          "internalType": "uint256",
          "name": "_fromTokenId",
          "type": "uint256"
        },
        {
          "indexed": false,
          "internalType": "uint256",
          "name": "_toTokenId",
          "type": "uint256"
        }
      ],
      "name": "BatchMetadataUpdate",
      "type": "event"
    },
    {
      "anonymous": false,
      "inputs": [
        {
          "indexed": false,
          "internalType": "uint256",
          "name": "tradeId",
          "type": "uint256"
        },
        {
          "indexed": false,
          "internalType": "address",
          "name": "buyer",
          "type": "address"
        }
      ],
      "name": "BuyerSigned",
      "type": "event"
    },
    {
      "anonymous": false,
      "inputs": [
        {
          "indexed": false,
          "internalType": "uint256",
          "name": "_tokenId",
          "type": "uint256"
        }
      ],
      "name": "MetadataUpdate",
      "type": "event"
    },
    {
      "anonymous": false,
      "inputs": [
        {
          "indexed": true,
          "internalType": "address",
          "name": "previousOwner",
          "type": "address"
        },
        {
          "indexed": true,
          "internalType": "address",
          "name": "newOwner",
          "type": "address"
        }
      ],
      "name": "OwnershipTransferred",
      "type": "event"
    },
    {
      "anonymous": false,
      "inputs": [
        {
          "indexed": false,
          "internalType": "uint256",
          "name": "tradeId",
          "type": "uint256"
        }
      ],
      "name": "RefundRequested",
      "type": "event"
    },
    {
      "anonymous": false,
      "inputs": [
        {
          "indexed": false,
          "internalType": "uint256",
          "name": "tradeId",
          "type": "uint256"
        }
      ],
      "name": "Refunded",
      "type": "event"
    },
    {
      "anonymous": false,
      "inputs": [
        {
          "indexed": false,
          "internalType": "uint256",
          "name": "tradeId",
          "type": "uint256"
        }
      ],
      "name": "SellerSigned",
      "type": "event"
    },
    {
      "anonymous": false,
      "inputs": [
        {
          "indexed": false,
          "internalType": "uint256",
          "name": "tradeId",
          "type": "uint256"
        }
      ],
      "name": "TradeCompleted",
      "type": "event"
    },
    {
      "anonymous": false,
      "inputs": [
        {
          "indexed": false,
          "internalType": "uint256",
          "name": "tradeId",
          "type": "uint256"
        },
        {
          "indexed": false,
          "internalType": "uint256",
          "name": "tokenId",
          "type": "uint256"
        },
        {
          "indexed": false,
          "internalType": "address",
          "name": "seller",
          "type": "address"
        },
        {
          "indexed": false,
          "internalType": "uint256",
          "name": "price",
          "type": "uint256"
        }
      ],
      "name": "TradeCreated",
      "type": "event"
    },
    {
      "anonymous": false,
      "inputs": [
        {
          "indexed": true,
          "internalType": "address",
          "name": "from",
          "type": "address"
        },
        {
          "indexed": true,
          "internalType": "address",
          "name": "to",
          "type": "address"
        },
        {
          "indexed": true,
          "internalType": "uint256",
          "name": "tokenId",
          "type": "uint256"
        }
      ],
      "name": "Transfer",
      "type": "event"
    },
    {
      "inputs": [
        {
          "internalType": "address",
          "name": "to",
          "type": "address"
        },
        {
          "internalType": "uint256",
          "name": "tokenId",
          "type": "uint256"
        }
      ],
      "name": "approve",
      "outputs": [],
      "stateMutability": "nonpayable",
      "type": "function"
    },
    {
      "inputs": [
        {
          "internalType": "address",
          "name": "owner",
          "type": "address"
        }
      ],
      "name": "balanceOf",
      "outputs": [
        {
          "internalType": "uint256",
          "name": "",
          "type": "uint256"
        }
      ],
      "stateMutability": "view",
      "type": "function"
    },
    {
      "inputs": [
        {
          "internalType": "uint256",
          "name": "tradeId",
          "type": "uint256"
        }
      ],
      "name": "buyerSign",
      "outputs": [],
      "stateMutability": "payable",
      "type": "function"
    },
    {
      "inputs": [],
      "name": "cardPrice",
      "outputs": [
        {
          "internalType": "uint256",
          "name": "",
          "type": "uint256"
        }
      ],
      "stateMutability": "view",
      "type": "function"
    },
    {
      "inputs": [
        {
          "internalType": "uint256",
          "name": "tradeId",
          "type": "uint256"
        }
      ],
      "name": "confirmRefund",
      "outputs": [],
      "stateMutability": "nonpayable",
      "type": "function"
    },
    {
      "inputs": [
        {
          "internalType": "string",
          "name": "uid",
          "type": "string"
        },
        {
          "internalType": "uint256",
          "name": "price",
          "type": "uint256"
        }
      ],
      "name": "createTrade",
      "outputs": [],
      "stateMutability": "nonpayable",
      "type": "function"
    },
    {
      "inputs": [
        {
          "internalType": "uint256",
          "name": "tradeId",
          "type": "uint256"
        }
      ],
      "name": "finalize",
      "outputs": [],
      "stateMutability": "nonpayable",
      "type": "function"
    },
    {
      "inputs": [
        {
          "internalType": "uint256",
          "name": "tokenId",
          "type": "uint256"
        }
      ],
      "name": "getApproved",
      "outputs": [
        {
          "internalType": "address",
          "name": "",
          "type": "address"
        }
      ],
      "stateMutability": "view",
      "type": "function"
    },
    {
      "inputs": [],
      "name": "getAvailableTrades",
      "outputs": [
        {
          "components": [
            {
              "internalType": "uint256",
              "name": "tradeId",
              "type": "uint256"
            },
            {
              "internalType": "uint256",
              "name": "tokenId",
              "type": "uint256"
            },
            {
              "internalType": "address payable",
              "name": "seller",
              "type": "address"
            },
            {
              "internalType": "address payable",
              "name": "buyer",
              "type": "address"
            },
            {
              "internalType": "uint256",
              "name": "price",
              "type": "uint256"
            },
            {
              "internalType": "uint256",
              "name": "timestamp",
              "type": "uint256"
            },
            {
              "internalType": "enum TradeManager.TradeStatus",
              "name": "status",
              "type": "uint8"
            }
          ],
          "internalType": "struct TradeManager.Trade[]",
          "name": "",
          "type": "tuple[]"
        }
      ],
      "stateMutability": "view",
      "type": "function"
    },
    {
      "inputs": [
        {
          "internalType": "uint256",
          "name": "tradeId",
          "type": "uint256"
        }
      ],
      "name": "getTrade",
      "outputs": [
        {
          "internalType": "uint256",
          "name": "tokenId",
          "type": "uint256"
        },
        {
          "internalType": "address",
          "name": "seller",
          "type": "address"
        },
        {
          "internalType": "address",
          "name": "buyer",
          "type": "address"
        },
        {
          "internalType": "uint256",
          "name": "price",
          "type": "uint256"
        },
        {
          "internalType": "enum TradeManager.TradeStatus",
          "name": "status",
          "type": "uint8"
        },
        {
          "internalType": "uint256",
          "name": "deadline",
          "type": "uint256"
        }
      ],
      "stateMutability": "view",
      "type": "function"
    },
    {
      "inputs": [],
      "name": "getTradeAnalytics",
      "outputs": [
        {
          "internalType": "uint256",
          "name": "totalTrades",
          "type": "uint256"
        },
        {
          "internalType": "uint256",
          "name": "completedTrades",
          "type": "uint256"
        },
        {
          "internalType": "uint256",
          "name": "pendingTrades",
          "type": "uint256"
        },
        {
          "internalType": "uint256",
          "name": "totalVolume",
          "type": "uint256"
        }
      ],
      "stateMutability": "view",
      "type": "function"
    },
    {
      "inputs": [
        {
          "internalType": "string",
          "name": "uid",
          "type": "string"
        }
      ],
      "name": "getTradesByUID",
      "outputs": [
        {
          "components": [
            {
              "internalType": "uint256",
              "name": "tradeId",
              "type": "uint256"
            },
            {
              "internalType": "uint256",
              "name": "tokenId",
              "type": "uint256"
            },
            {
              "internalType": "address payable",
              "name": "seller",
              "type": "address"
            },
            {
              "internalType": "address payable",
              "name": "buyer",
              "type": "address"
            },
            {
              "internalType": "uint256",
              "name": "price",
              "type": "uint256"
            },
            {
              "internalType": "uint256",
              "name": "timestamp",
              "type": "uint256"
            },
            {
              "internalType": "enum TradeManager.TradeStatus",
              "name": "status",
              "type": "uint8"
            }
          ],
          "internalType": "struct TradeManager.Trade[]",
          "name": "",
          "type": "tuple[]"
        }
      ],
      "stateMutability": "view",
      "type": "function"
    },
    {
      "inputs": [
        {
          "internalType": "address",
          "name": "user",
          "type": "address"
        }
      ],
      "name": "getUserTrades",
      "outputs": [
        {
          "components": [
            {
              "internalType": "uint256",
              "name": "tradeId",
              "type": "uint256"
            },
            {
              "internalType": "uint256",
              "name": "tokenId",
              "type": "uint256"
            },
            {
              "internalType": "address payable",
              "name": "seller",
              "type": "address"
            },
            {
              "internalType": "address payable",
              "name": "buyer",
              "type": "address"
            },
            {
              "internalType": "uint256",
              "name": "price",
              "type": "uint256"
            },
            {
              "internalType": "uint256",
              "name": "timestamp",
              "type": "uint256"
            },
            {
              "internalType": "enum TradeManager.TradeStatus",
              "name": "status",
              "type": "uint8"
            }
          ],
          "internalType": "struct TradeManager.Trade[]",
          "name": "",
          "type": "tuple[]"
        }
      ],
      "stateMutability": "view",
      "type": "function"
    },
    {
      "inputs": [
        {
          "internalType": "address",
          "name": "owner",
          "type": "address"
        },
        {
          "internalType": "address",
          "name": "operator",
          "type": "address"
        }
      ],
      "name": "isApprovedForAll",
      "outputs": [
        {
          "internalType": "bool",
          "name": "",
          "type": "bool"
        }
      ],
      "stateMutability": "view",
      "type": "function"
    },
    {
      "inputs": [],
      "name": "mainContract",
      "outputs": [
        {
          "internalType": "address",
          "name": "",
          "type": "address"
        }
      ],
      "stateMutability": "view",
      "type": "function"
    },
    {
      "inputs": [],
      "name": "name",
      "outputs": [
        {
          "internalType": "string",
          "name": "",
          "type": "string"
        }
      ],
      "stateMutability": "view",
      "type": "function"
    },
    {
      "inputs": [],
      "name": "nextTokenId",
      "outputs": [
        {
          "internalType": "uint256",
          "name": "",
          "type": "uint256"
        }
      ],
      "stateMutability": "view",
      "type": "function"
    },
    {
      "inputs": [],
      "name": "owner",
      "outputs": [
        {
          "internalType": "address",
          "name": "",
          "type": "address"
        }
      ],
      "stateMutability": "view",
      "type": "function"
    },
    {
      "inputs": [
        {
          "internalType": "uint256",
          "name": "tokenId",
          "type": "uint256"
        }
      ],
      "name": "ownerOf",
      "outputs": [
        {
          "internalType": "address",
          "name": "",
          "type": "address"
        }
      ],
      "stateMutability": "view",
      "type": "function"
    },
    {
      "inputs": [
        {
          "internalType": "string",
          "name": "uid",
          "type": "string"
        },
        {
          "internalType": "uint256",
          "name": "tokenId",
          "type": "uint256"
        },
        {
          "internalType": "address",
          "name": "buyer",
          "type": "address"
        },
        {
          "internalType": "uint256",
          "name": "price",
          "type": "uint256"
        }
      ],
      "name": "recordPrimaryTrade",
      "outputs": [],
      "stateMutability": "nonpayable",
      "type": "function"
    },
    {
      "inputs": [
        {
          "internalType": "string",
          "name": "uid",
          "type": "string"
        },
        {
          "internalType": "uint256",
          "name": "tokenId",
          "type": "uint256"
        },
        {
          "internalType": "address",
          "name": "seller",
          "type": "address"
        },
        {
          "internalType": "address",
          "name": "buyer",
          "type": "address"
        },
        {
          "internalType": "uint256",
          "name": "price",
          "type": "uint256"
        }
      ],
      "name": "recordSecondaryTrade",
      "outputs": [],
      "stateMutability": "nonpayable",
      "type": "function"
    },
    {
      "inputs": [],
      "name": "renounceOwnership",
      "outputs": [],
      "stateMutability": "nonpayable",
      "type": "function"
    },
    {
      "inputs": [
        {
          "internalType": "uint256",
          "name": "tradeId",
          "type": "uint256"
        }
      ],
      "name": "requestRefund",
      "outputs": [],
      "stateMutability": "nonpayable",
      "type": "function"
    },
    {
      "inputs": [
        {
          "internalType": "address",
          "name": "from",
          "type": "address"
        },
        {
          "internalType": "address",
          "name": "to",
          "type": "address"
        },
        {
          "internalType": "uint256",
          "name": "tokenId",
          "type": "uint256"
        }
      ],
      "name": "safeTransferFrom",
      "outputs": [],
      "stateMutability": "nonpayable",
      "type": "function"
    },
    {
      "inputs": [
        {
          "internalType": "address",
          "name": "from",
          "type": "address"
        },
        {
          "internalType": "address",
          "name": "to",
          "type": "address"
        },
        {
          "internalType": "uint256",
          "name": "tokenId",
          "type": "uint256"
        },
        {
          "internalType": "bytes",
          "name": "data",
          "type": "bytes"
        }
      ],
      "name": "safeTransferFrom",
      "outputs": [],
      "stateMutability": "nonpayable",
      "type": "function"
    },
    {
      "inputs": [
        {
          "internalType": "uint256",
          "name": "tradeId",
          "type": "uint256"
        }
      ],
      "name": "sellerSign",
      "outputs": [],
      "stateMutability": "nonpayable",
      "type": "function"
    },
    {
      "inputs": [
        {
          "internalType": "address",
          "name": "operator",
          "type": "address"
        },
        {
          "internalType": "bool",
          "name": "approved",
          "type": "bool"
        }
      ],
      "name": "setApprovalForAll",
      "outputs": [],
      "stateMutability": "nonpayable",
      "type": "function"
    },
    {
      "inputs": [
        {
          "internalType": "address",
          "name": "_mainContract",
          "type": "address"
        }
      ],
      "name": "setMainContract",
      "outputs": [],
      "stateMutability": "nonpayable",
      "type": "function"
    },
    {
      "inputs": [
        {
          "internalType": "string",
          "name": "uid",
          "type": "string"
        },
        {
          "internalType": "uint256",
          "name": "tokenId",
          "type": "uint256"
        }
      ],
      "name": "setUidToTokenId",
      "outputs": [],
      "stateMutability": "nonpayable",
      "type": "function"
    },
    {
      "inputs": [
        {
          "internalType": "string",
          "name": "uid",
          "type": "string"
        },
        {
          "internalType": "bool",
          "name": "used",
          "type": "bool"
        }
      ],
      "name": "setUidUsed",
      "outputs": [],
      "stateMutability": "nonpayable",
      "type": "function"
    },
    {
      "inputs": [
        {
          "internalType": "bytes4",
          "name": "interfaceId",
          "type": "bytes4"
        }
      ],
      "name": "supportsInterface",
      "outputs": [
        {
          "internalType": "bool",
          "name": "",
          "type": "bool"
        }
      ],
      "stateMutability": "view",
      "type": "function"
    },
    {
      "inputs": [],
      "name": "symbol",
      "outputs": [
        {
          "internalType": "string",
          "name": "",
          "type": "string"
        }
      ],
      "stateMutability": "view",
      "type": "function"
    },
    {
      "inputs": [
        {
          "internalType": "uint256",
          "name": "index",
          "type": "uint256"
        }
      ],
      "name": "tokenByIndex",
      "outputs": [
        {
          "internalType": "uint256",
          "name": "",
          "type": "uint256"
        }
      ],
      "stateMutability": "view",
      "type": "function"
    },
    {
      "inputs": [
        {
          "internalType": "address",
          "name": "owner",
          "type": "address"
        },
        {
          "internalType": "uint256",
          "name": "index",
          "type": "uint256"
        }
      ],
      "name": "tokenOfOwnerByIndex",
      "outputs": [
        {
          "internalType": "uint256",
          "name": "",
          "type": "uint256"
        }
      ],
      "stateMutability": "view",
      "type": "function"
    },
    {
      "inputs": [
        {
          "internalType": "uint256",
          "name": "",
          "type": "uint256"
        }
      ],
      "name": "tokenToTrade",
      "outputs": [
        {
          "internalType": "uint256",
          "name": "",
          "type": "uint256"
        }
      ],
      "stateMutability": "view",
      "type": "function"
    },
    {
      "inputs": [
        {
          "internalType": "uint256",
          "name": "tokenId",
          "type": "uint256"
        }
      ],
      "name": "tokenURI",
      "outputs": [
        {
          "internalType": "string",
          "name": "",
          "type": "string"
        }
      ],
      "stateMutability": "view",
      "type": "function"
    },
    {
      "inputs": [],
      "name": "totalSupply",
      "outputs": [
        {
          "internalType": "uint256",
          "name": "",
          "type": "uint256"
        }
      ],
      "stateMutability": "view",
      "type": "function"
    },
    {
      "inputs": [],
      "name": "tradeCounter",
      "outputs": [
        {
          "internalType": "uint256",
          "name": "",
          "type": "uint256"
        }
      ],
      "stateMutability": "view",
      "type": "function"
    },
    {
      "inputs": [
        {
          "internalType": "uint256",
          "name": "",
          "type": "uint256"
        }
      ],
      "name": "trades",
      "outputs": [
        {
          "internalType": "uint256",
          "name": "tradeId",
          "type": "uint256"
        },
        {
          "internalType": "uint256",
          "name": "tokenId",
          "type": "uint256"
        },
        {
          "internalType": "address payable",
          "name": "seller",
          "type": "address"
        },
        {
          "internalType": "address payable",
          "name": "buyer",
          "type": "address"
        },
        {
          "internalType": "uint256",
          "name": "price",
          "type": "uint256"
        },
        {
          "internalType": "uint256",
          "name": "timestamp",
          "type": "uint256"
        },
        {
          "internalType": "enum TradeManager.TradeStatus",
          "name": "status",
          "type": "uint8"
        }
      ],
      "stateMutability": "view",
      "type": "function"
    },
    {
      "inputs": [
        {
          "internalType": "address",
          "name": "from",
          "type": "address"
        },
        {
          "internalType": "address",
          "name": "to",
          "type": "address"
        },
        {
          "internalType": "uint256",
          "name": "tokenId",
          "type": "uint256"
        }
      ],
      "name": "transferFrom",
      "outputs": [],
      "stateMutability": "nonpayable",
      "type": "function"
    },
    {
      "inputs": [
        {
          "internalType": "address",
          "name": "newOwner",
          "type": "address"
        }
      ],
      "name": "transferOwnership",
      "outputs": [],
      "stateMutability": "nonpayable",
      "type": "function"
    },
    {
      "inputs": [
        {
          "internalType": "string",
          "name": "",
          "type": "string"
        }
      ],
      "name": "uidToTokenId",
      "outputs": [
        {
          "internalType": "uint256",
          "name": "",
          "type": "uint256"
        }
      ],
      "stateMutability": "view",
      "type": "function"
    },
    {
      "inputs": [
        {
          "internalType": "string",
          "name": "",
          "type": "string"
        }
      ],
      "name": "uidUsed",
      "outputs": [
        {
          "internalType": "bool",
          "name": "",
          "type": "bool"
        }
      ],
      "stateMutability": "view",
      "type": "function"
    }
  ],
  "bytecode": "0x60806040526001600c5534801561001557600080fd5b506040516137d23803806137d2833981016040819052610034916101a4565b828282808383600061004683826102b8565b50600161005382826102b8565b5050506001600160a01b03811661008457604051631e4fbdf760e01b81526000600482015260240160405180910390fd5b61008d81610099565b50505050505050610376565b600b80546001600160a01b038381166001600160a01b0319831681179093556040519116919082907f8be0079c531659141344cd1fd0a4f28419497f9722a3daafe3b4186f6b6457e090600090a35050565b634e487b7160e01b600052604160045260246000fd5b600082601f83011261011257600080fd5b81516001600160401b0381111561012b5761012b6100eb565b604051601f8201601f19908116603f011681016001600160401b0381118282101715610159576101596100eb565b60405281815283820160200185101561017157600080fd5b60005b8281101561019057602081860181015183830182015201610174565b506000918101602001919091529392505050565b6000806000606084860312156101b957600080fd5b83516001600160401b038111156101cf57600080fd5b6101db86828701610101565b602086015190945090506001600160401b038111156101f957600080fd5b61020586828701610101565b604086015190935090506001600160a01b038116811461022457600080fd5b809150509250925092565b600181811c9082168061024357607f821691505b60208210810361026357634e487b7160e01b600052602260045260246000fd5b50919050565b601f8211156102b357806000526020600020601f840160051c810160208510156102905750805b601f840160051c820191505b818110156102b0576000815560010161029c565b50505b505050565b81516001600160401b038111156102d1576102d16100eb565b6102e5816102df845461022f565b84610269565b6020601f82116001811461031957600083156103015750848201515b600019600385901b1c1916600184901b1784556102b0565b600084815260208120601f198516915b828110156103495787850151825560209485019460019092019101610329565b50848210156103675786840151600019600387901b60f8161c191681555b50505050600190811b01905550565b61344d806103856000396000f3fe6080604052600436106101fc5760003560e01c80637c7b6c2e116101145780637c7b6c2e1461054357806383c44eb3146105635780638da5cb5b14610583578063927c77421461059857806395d89b41146105c557806399149adc146105da5780639fd5180b146105fa578063a22cb4651461060f578063a4b2409e1461062f578063b81405f91461064f578063b88d4fde1461067c578063bef9813f1461069c578063c535bbb2146106bc578063c87b56dd146106dc578063cc20a5fa146106fc578063d228a98b14610734578063d270e7ab14610754578063d2bc1aa314610774578063d5b504ce14610794578063de34bacd146107a7578063e985e9c5146107bd578063f2fde38b146107dd57600080fd5b806301ffc9a71461020157806305261aea1461023657806306fdde0314610258578063081812fc1461027a578063095ea7b3146102a757806318160ddd146102c75780631e6c598e146102e657806323b872dd146103605780632cbee80a146103805780632db25e05146103bb5780632f745c59146103ed5780633777eb4a1461040d5780633ded33bc1461042d57806342842e0e1461044d5780634f6ccce71461046d578063527111af1461048d5780636352211e146104c2578063660d15b5146104e257806370a08231146104f8578063715018a61461051857806375794a3c1461052d575b600080fd5b34801561020d57600080fd5b5061022161021c366004612c53565b6107fd565b60405190151581526020015b60405180910390f35b34801561024257600080fd5b50610256610251366004612c70565b61080e565b005b34801561026457600080fd5b5061026d610961565b60405161022d9190612cd9565b34801561028657600080fd5b5061029a610295366004612c70565b6109f3565b60405161022d9190612cec565b3480156102b357600080fd5b506102566102c2366004612d1c565b610a08565b3480156102d357600080fd5b506008545b60405190815260200161022d565b3480156102f257600080fd5b5061034d610301366004612c70565b6011602052600090815260409020805460018201546002830154600384015460048501546005860154600690960154949593946001600160a01b03938416949390921692909160ff1687565b60405161022d9796959493929190612d7e565b34801561036c57600080fd5b5061025661037b366004612dca565b610a17565b34801561038c57600080fd5b5061022161039b366004612eb5565b8051602081830181018051600e8252928201919093012091525460ff1681565b3480156103c757600080fd5b506103db6103d6366004612c70565b610aa2565b60405161022d96959493929190612ee9565b3480156103f957600080fd5b506102d8610408366004612d1c565b610b8b565b34801561041957600080fd5b50610256610428366004612f3c565b610be2565b34801561043957600080fd5b50610256610448366004612f89565b610c64565b34801561045957600080fd5b50610256610468366004612dca565b610cd3565b34801561047957600080fd5b506102d8610488366004612c70565b610cf3565b34801561049957600080fd5b506104a2610d47565b60408051948552602085019390935291830152606082015260800161022d565b3480156104ce57600080fd5b5061029a6104dd366004612c70565b610f12565b3480156104ee57600080fd5b506102d860105481565b34801561050457600080fd5b506102d8610513366004612f89565b610f1d565b34801561052457600080fd5b50610256610f65565b34801561053957600080fd5b506102d8600c5481565b34801561054f57600080fd5b5061025661055e366004612fa4565b610f79565b34801561056f57600080fd5b5061025661057e366004612fe8565b6111eb565b34801561058f57600080fd5b5061029a6113af565b3480156105a457600080fd5b506105b86105b3366004612f89565b6113be565b60405161022d9190613046565b3480156105d157600080fd5b5061026d6115c9565b3480156105e657600080fd5b506102566105f5366004612c70565b6115d8565b34801561060657600080fd5b506105b8611716565b34801561061b57600080fd5b5061025661062a3660046130e6565b6118de565b34801561063b57600080fd5b5061025661064a366004612c70565b6118e9565b34801561065b57600080fd5b506102d861066a366004612c70565b60126020526000908152604090205481565b34801561068857600080fd5b50610256610697366004613110565b6119d8565b3480156106a857600080fd5b506102566106b736600461318b565b6119f0565b3480156106c857600080fd5b506102566106d7366004612c70565b611bc3565b3480156106e857600080fd5b5061026d6106f7366004612c70565b611cb8565b34801561070857600080fd5b506102d8610717366004612eb5565b805160208183018101805160138252928201919093012091525481565b34801561074057600080fd5b5061025661074f366004612fa4565b611cc3565b34801561076057600080fd5b50600f5461029a906001600160a01b031681565b34801561078057600080fd5b506105b861078f366004612eb5565b611d35565b6102566107a2366004612c70565b611f24565b3480156107b357600080fd5b506102d8600d5481565b3480156107c957600080fd5b506102216107d83660046131fa565b612036565b3480156107e957600080fd5b506102566107f8366004612f89565b612064565b6000610808826120a2565b92915050565b600081815260116020526040902060038101546001600160a01b031633148061084857506005810154610844906203f48061323a565b4210155b6108935760405162461bcd60e51b815260206004820152601760248201527609edcd8f240c4eaf2cae440dee440c2cce8cae4406e64d604b1b60448201526064015b60405180910390fd5b6002600682015460ff1660058111156108ae576108ae612d46565b146108eb5760405162461bcd60e51b815260206004820152600d60248201526c139bdd08199a5b985b1a5e9959609a1b604482015260640161088a565b600281015460048201546040516001600160a01b039092169181156108fc0291906000818181858888f1935050505015801561092b573d6000803e3d6000fd5b5060068101805460ff191660051790556040518281526000805160206133f8833981519152906020015b60405180910390a15050565b6060600080546109709061324d565b80601f016020809104026020016040519081016040528092919081815260200182805461099c9061324d565b80156109e95780601f106109be576101008083540402835291602001916109e9565b820191906000526020600020905b8154815290600101906020018083116109cc57829003601f168201915b5050505050905090565b60006109fe826120c7565b50610808826120ff565b610a1382823361211a565b5050565b6001600160a01b038216610a41576000604051633250574960e11b815260040161088a9190612cec565b6000610a4e838333612127565b9050836001600160a01b0316816001600160a01b031614610a9c576040516364283d7b60e01b81526001600160a01b038086166004830152602482018490528216604482015260640161088a565b50505050565b6000818152601160209081526040808320815160e0810183528154815260018201549381019390935260028101546001600160a01b0390811692840192909252600381015490911660608301526004810154608083015260058082015460a084015260068201548493849384938493849384939092909160c084019160ff90911690811115610b3357610b33612d46565b6005811115610b4457610b44612d46565b81525050905080602001518160400151826060015183608001518460c001518560a001516203f480610b76919061323a565b949d939c50919a509850965090945092505050565b6000610b9683610f1d565b8210610bb957828260405163295f44f760e21b815260040161088a929190613287565b506001600160a01b03919091166000908152600660209081526040808320938352929052205490565b610bea6113af565b6001600160a01b0316336001600160a01b03161480610c135750600f546001600160a01b031633145b610c2f5760405162461bcd60e51b815260040161088a906132a0565b80600e83604051610c4091906132d5565b908152604051908190036020019020805491151560ff199092169190911790555050565b610c6c6113af565b6001600160a01b0316336001600160a01b03161480610c955750600f546001600160a01b031633145b610cb15760405162461bcd60e51b815260040161088a906132a0565b600f80546001600160a01b0319166001600160a01b0392909216919091179055565b610cee838383604051806020016040528060008152506119d8565b505050565b6000610cfe60085490565b8210610d225760008260405163295f44f760e21b815260040161088a929190613287565b60088281548110610d3557610d356132f1565b90600052602060002001549050919050565b600080600080610d556113af565b6001600160a01b0316336001600160a01b03161480610d7e5750600f546001600160a01b031633145b610d9a5760405162461bcd60e51b815260040161088a906132a0565b6000808060015b6010548111610f01576000818152601160209081526040808320815160e0810183528154815260018201549381019390935260028101546001600160a01b0390811692840192909252600381015490911660608301526004810154608083015260058082015460a0840152600682015460c084019160ff90911690811115610e2b57610e2b612d46565b6005811115610e3c57610e3c612d46565b905250905060058160c001516005811115610e5957610e59612d46565b03610e825784610e6881613307565b955050806080015183610e7b919061323a565b9250610eee565b60008160c001516005811115610e9a57610e9a612d46565b1480610ebb575060018160c001516005811115610eb957610eb9612d46565b145b80610edb575060028160c001516005811115610ed957610ed9612d46565b145b15610eee5783610eea81613307565b9450505b5080610ef981613307565b915050610da1565b506010549792965090945092509050565b6000610808826120c7565b60006001600160a01b038216610f495760006040516322718ad960e21b815260040161088a9190612cec565b506001600160a01b031660009081526003602052604090205490565b610f6d61213c565b610f77600061216e565b565b600e82604051610f8991906132d5565b9081526040519081900360200190205460ff16610fd85760405162461bcd60e51b815260206004820152600d60248201526c155251081b9bdd08189bdd5b99609a1b604482015260640161088a565b6000601383604051610fea91906132d5565b9081526040519081900360200190205490503361100682610f12565b6001600160a01b0316146110545760405162461bcd60e51b81526020600482015260156024820152742cb7ba9030b932903737ba103a34329037bbb732b960591b604482015260640161088a565b600060106000815461106590613307565b91905081905590506040518060e00160405280828152602001838152602001336001600160a01b0316815260200160006001600160a01b0316815260200184815260200160008152602001600060058111156110c3576110c3612d46565b90526000828152601160209081526040918290208351815590830151600180830191909155918301516002820180546001600160a01b039283166001600160a01b03199182161790915560608501516003840180549190931691161790556080830151600482015560a083015160058083019190915560c084015160068301805493949193909260ff199091169190849081111561116357611163612d46565b021790555050506000828152601260205260409081902082905551829060139061118e9087906132d5565b9081526040805160209281900383018120939093558383529082018490523390820152606081018490527f657174824d489fb9073f88e4879b766a2d35f9de0e5fc1f11bdc04c687a7b6499060800160405180910390a150505050565b60006010600081546111fc90613307565b91905081905590506040518060e001604052808281526020018581526020016112236113af565b6001600160a01b0390811682528516602082015260408101849052426060820152608001600590526000828152601160209081526040918290208351815590830151600180830191909155918301516002820180546001600160a01b039283166001600160a01b03199182161790915560608501516003840180549190931691161790556080830151600482015560a083015160058083019190915560c084015160068301805493949193909260ff19909116919084908111156112e9576112e9612d46565b02179055505050600084815260126020526040908190208290555184906013906113149088906132d5565b9081526020016040518091039020819055506001600e8660405161133891906132d5565b908152604051908190036020018120805492151560ff19909316929092179091556014906113679087906132d5565b908152604051602091819003820181208054600181018255600091825290839020018390558281526000805160206133f8833981519152910160405180910390a15050505050565b600b546001600160a01b031690565b6060600060015b601054811161143a576000818152601160205260409020600201546001600160a01b038581169116148061141557506000818152601160205260409020600301546001600160a01b038581169116145b15611428578161142481613307565b9250505b8061143281613307565b9150506113c5565b506000816001600160401b0381111561145557611455612e07565b60405190808252806020026020018201604052801561148e57816020015b61147b612bde565b8152602001906001900390816114735790505b509050600060015b60105481116115bf576000818152601160205260409020600201546001600160a01b03878116911614806114e657506000818152601160205260409020600301546001600160a01b038781169116145b156115ad57600081815260116020908152604091829020825160e0810184528154815260018201549281019290925260028101546001600160a01b0390811693830193909352600381015490921660608201526004820154608082015260058083015460a0830152600683015491929160c084019160ff9091169081111561157057611570612d46565b600581111561158157611581612d46565b905250838361158f81613307565b9450815181106115a1576115a16132f1565b60200260200101819052505b806115b781613307565b915050611496565b5090949350505050565b6060600180546109709061324d565b600081815260116020526040902060028101546001600160a01b031633146116125760405162461bcd60e51b815260040161088a90613320565b6003600682015460ff16600581111561162d5761162d612d46565b146116705760405162461bcd60e51b8152602060048201526013602482015272139bc81c99599d5b99081c995c5d595cdd1959606a1b604482015260640161088a565b600381015460028201546001830154611696926001600160a01b03908116921690610cd3565b600381015460048201546040516001600160a01b039092169181156108fc0291906000818181858888f193505050501580156116d6573d6000803e3d6000fd5b5060068101805460ff191660041790556040518281527f3d2a04f53164bedf9a8a46353305d6b2d2261410406df3b41f99ce6489dc003c90602001610955565b6060600060015b60105481116117715760008181526011602052604081206006015460ff16600581111561174c5761174c612d46565b0361175f578161175b81613307565b9250505b8061176981613307565b91505061171d565b506000816001600160401b0381111561178c5761178c612e07565b6040519080825280602002602001820160405280156117c557816020015b6117b2612bde565b8152602001906001900390816117aa5790505b509050600060015b60105481116118d55760008181526011602052604081206006015460ff1660058111156117fc576117fc612d46565b036118c357600081815260116020908152604091829020825160e0810184528154815260018201549281019290925260028101546001600160a01b0390811693830193909352600381015490921660608201526004820154608082015260058083015460a0830152600683015491929160c084019160ff9091169081111561188657611886612d46565b600581111561189757611897612d46565b90525083836118a581613307565b9450815181106118b7576118b76132f1565b60200260200101819052505b806118cd81613307565b9150506117cd565b50909392505050565b610a133383836121c0565b600081815260116020526040902060038101546001600160a01b031633146119405760405162461bcd60e51b815260206004820152600a60248201526927b7363c90313abcb2b960b11b604482015260640161088a565b6002600682015460ff16600581111561195b5761195b612d46565b146119995760405162461bcd60e51b815260206004820152600e60248201526d4e6f7420726566756e6461626c6560901b604482015260640161088a565b60068101805460ff191660031790556040518281527f431b80eca5334464928f696b9231ecf0987e4f1a105f7f560f22514a2fb93dd790602001610955565b6119e3848484610a17565b610a9c3385858585612256565b6000601060008154611a0190613307565b91905081905590506040518060e00160405280828152602001868152602001856001600160a01b03168152602001846001600160a01b03168152602001838152602001428152602001600580811115611a5c57611a5c612d46565b90526000828152601160209081526040918290208351815590830151600180830191909155918301516002820180546001600160a01b039283166001600160a01b03199182161790915560608501516003840180549190931691161790556080830151600482015560a083015160058083019190915560c084015160068301805493949193909260ff1990911691908490811115611afc57611afc612d46565b0217905550505060008581526012602052604090819020829055518590601390611b279089906132d5565b9081526020016040518091039020819055506001600e87604051611b4b91906132d5565b908152604051908190036020018120805492151560ff1990931692909217909155601490611b7a9088906132d5565b908152604051602091819003820181208054600181018255600091825290839020018390558281526000805160206133f8833981519152910160405180910390a1505050505050565b600081815260116020526040902060028101546001600160a01b03163314611bfd5760405162461bcd60e51b815260040161088a90613320565b6001600682015460ff166005811115611c1857611c18612d46565b14611c585760405162461bcd60e51b815260206004820152601060248201526f109d5e595c881b9bdd081cda59db995960821b604482015260640161088a565b60038101546001820154611c799130916001600160a01b0390911690610cd3565b60068101805460ff191660021790556040518281527fcd1d511f77247cf89caac8ed096d27708cf4a76634150278cc907ec26a5b33b390602001610955565b60606108088261236f565b611ccb6113af565b6001600160a01b0316336001600160a01b03161480611cf45750600f546001600160a01b031633145b611d105760405162461bcd60e51b815260040161088a906132a0565b80601383604051611d2191906132d5565b908152604051908190036020019020555050565b60606000601483604051611d4991906132d5565b9081526040805191829003602090810183208054808302850183019093528284529190830182828015611d9b57602002820191906000526020600020905b815481526020019060010190808311611d87575b505050505090508051600003611de4576040805160008082526020820190925290611ddc565b611dc9612bde565b815260200190600190039081611dc15790505b509392505050565b600081516001600160401b03811115611dff57611dff612e07565b604051908082528060200260200182016040528015611e3857816020015b611e25612bde565b815260200190600190039081611e1d5790505b50905060005b8251811015611ddc5760116000848381518110611e5d57611e5d6132f1565b6020908102919091018101518252818101929092526040908101600020815160e0810183528154815260018201549381019390935260028101546001600160a01b0390811692840192909252600381015490911660608301526004810154608083015260058082015460a0840152600682015460c084019160ff90911690811115611eea57611eea612d46565b6005811115611efb57611efb612d46565b81525050828281518110611f1157611f116132f1565b6020908102919091010152600101611e3e565b600081815260116020526040812090600682015460ff166005811115611f4c57611f4c612d46565b14611f8f5760405162461bcd60e51b81526020600482015260136024820152725472616465206e6f7420617661696c61626c6560681b604482015260640161088a565b80600401543414611fd25760405162461bcd60e51b815260206004820152600d60248201526c092dcc6dee4e4cac6e8408aa89609b1b604482015260640161088a565b6003810180546001600160a01b031916331790556006810180546001919060ff191682800217905550426005820155604080518381523360208201527f7749be28cf64fe132c4475feb0aec4133f13f95a84f1869a42911a8a7a0f0f319101610955565b6001600160a01b03918216600090815260056020908152604080832093909416825291909152205460ff1690565b61206c61213c565b6001600160a01b038116612096576000604051631e4fbdf760e01b815260040161088a9190612cec565b61209f8161216e565b50565b60006001600160e01b03198216632483248360e11b1480610808575061080882612478565b6000806120d38361249d565b90506001600160a01b03811661080857604051637e27328960e01b81526004810184905260240161088a565b6000908152600460205260409020546001600160a01b031690565b610cee83838360016124b8565b60006121348484846125b5565b949350505050565b336121456113af565b6001600160a01b031614610f77573360405163118cdaa760e01b815260040161088a9190612cec565b600b80546001600160a01b038381166001600160a01b0319831681179093556040519116919082907f8be0079c531659141344cd1fd0a4f28419497f9722a3daafe3b4186f6b6457e090600090a35050565b6001600160a01b0382166121e95781604051630b61174360e31b815260040161088a9190612cec565b6001600160a01b03838116600081815260056020908152604080832094871680845294825291829020805460ff191686151590811790915591519182527f17307eab39ab6107e8899845ad3d59bd9653f200f220920489ca2b5937696c31910160405180910390a3505050565b6001600160a01b0383163b1561236857604051630a85bd0160e11b81526001600160a01b0384169063150b7a0290612298908890889087908790600401613345565b6020604051808303816000875af19250505080156122d3575060408051601f3d908101601f191682019092526122d091810190613382565b60015b612333573d808015612301576040519150601f19603f3d011682016040523d82523d6000602084013e612306565b606091505b50805160000361232b5783604051633250574960e11b815260040161088a9190612cec565b805181602001fd5b6001600160e01b03198116630a85bd0160e11b146123665783604051633250574960e11b815260040161088a9190612cec565b505b5050505050565b606061237a826120c7565b506000828152600a6020526040812080546123949061324d565b80601f01602080910402602001604051908101604052809291908181526020018280546123c09061324d565b801561240d5780601f106123e25761010080835404028352916020019161240d565b820191906000526020600020905b8154815290600101906020018083116123f057829003601f168201915b50505050509050600061242b60408051602081019091526000815290565b9050805160000361243d575092915050565b81511561246f57808260405160200161245792919061339f565b60405160208183030381529060405292505050919050565b61213484612682565b60006001600160e01b0319821663780e9d6360e01b14806108085750610808826126f7565b6000908152600260205260409020546001600160a01b031690565b80806124cc57506001600160a01b03821615155b156125855760006124dc846120c7565b90506001600160a01b038316158015906125085750826001600160a01b0316816001600160a01b031614155b801561251b57506125198184612036565b155b1561253b578260405163a9fbf51f60e01b815260040161088a9190612cec565b81156125835783856001600160a01b0316826001600160a01b03167f8c5be1e5ebec7d5bd14f71427d1e84f3dd0314c0f7b2291e5b200ac8c7c3b92560405160405180910390a45b505b5050600090815260046020526040902080546001600160a01b0319166001600160a01b0392909216919091179055565b6000806125c3858585612747565b90506001600160a01b0381166126205761261b84600880546000838152600960205260408120829055600182018355919091527ff3f7a9fe364faab93b216da50a3214154f22a0a2b415b23a84c8169e8b636ee30155565b612643565b846001600160a01b0316816001600160a01b03161461264357612643818561283b565b6001600160a01b03851661265f5761265a846128bc565b612134565b846001600160a01b0316816001600160a01b03161461213457612134858561296b565b606061268d826120c7565b5060006126a560408051602081019091526000815290565b905060008151116126c557604051806020016040528060008152506126f0565b806126cf846129bb565b6040516020016126e092919061339f565b6040516020818303038152906040525b9392505050565b60006001600160e01b031982166380ac58cd60e01b148061272857506001600160e01b03198216635b5e139f60e01b145b8061080857506301ffc9a760e01b6001600160e01b0319831614610808565b6000806127538461249d565b90506001600160a01b0383161561276f5761276f818486612a4d565b6001600160a01b038116156127ad5761278c6000856000806124b8565b6001600160a01b038116600090815260036020526040902080546000190190555b6001600160a01b038516156127dc576001600160a01b0385166000908152600360205260409020805460010190555b60008481526002602052604080822080546001600160a01b0319166001600160a01b0389811691821790925591518793918516917fddf252ad1be2c89b69c2b068fc378daa952ba7f163c4a11628f55a4df523b3ef91a4949350505050565b600061284683610f1d565b6000838152600760209081526040808320546001600160a01b038816845260069092529091209192509081831461289d57600083815260208281526040808320548584528184208190558352600790915290208290555b6000938452600760209081526040808620869055938552525081205550565b6008546000906128ce906001906133ce565b600083815260096020526040812054600880549394509092849081106128f6576128f66132f1565b906000526020600020015490508060088381548110612917576129176132f1565b600091825260208083209091019290925582815260099091526040808220849055858252812055600880548061294f5761294f6133e1565b6001900381819060005260206000200160009055905550505050565b6000600161297884610f1d565b61298291906133ce565b6001600160a01b039093166000908152600660209081526040808320868452825280832085905593825260079052919091209190915550565b606060006129c883612aa3565b60010190506000816001600160401b038111156129e7576129e7612e07565b6040519080825280601f01601f191660200182016040528015612a11576020820181803683370190505b5090508181016020015b600019016f181899199a1a9b1b9c1cb0b131b232b360811b600a86061a8153600a8504945084612a1b57509392505050565b612a58838383612b79565b610cee576001600160a01b038316612a8657604051637e27328960e01b81526004810182905260240161088a565b818160405163177e802f60e01b815260040161088a929190613287565b60008072184f03e93ff9f4daa797ed6e38ed64bf6a1f0160401b8310612ae25772184f03e93ff9f4daa797ed6e38ed64bf6a1f0160401b830492506040015b6904ee2d6d415b85acef8160201b8310612b0c576904ee2d6d415b85acef8160201b830492506020015b662386f26fc100008310612b2a57662386f26fc10000830492506010015b6305f5e1008310612b42576305f5e100830492506008015b6127108310612b5657612710830492506004015b60648310612b68576064830492506002015b600a83106108085760010192915050565b60006001600160a01b038316158015906121345750826001600160a01b0316846001600160a01b03161480612bb35750612bb38484612036565b806121345750826001600160a01b0316612bcc836120ff565b6001600160a01b031614949350505050565b6040518060e00160405280600081526020016000815260200160006001600160a01b0316815260200160006001600160a01b03168152602001600081526020016000815260200160006005811115612c3857612c38612d46565b905290565b6001600160e01b03198116811461209f57600080fd5b600060208284031215612c6557600080fd5b81356126f081612c3d565b600060208284031215612c8257600080fd5b5035919050565b60005b83811015612ca4578181015183820152602001612c8c565b50506000910152565b60008151808452612cc5816020860160208601612c89565b601f01601f19169290920160200192915050565b6020815260006126f06020830184612cad565b6001600160a01b0391909116815260200190565b80356001600160a01b0381168114612d1757600080fd5b919050565b60008060408385031215612d2f57600080fd5b612d3883612d00565b946020939093013593505050565b634e487b7160e01b600052602160045260246000fd5b60068110612d7a57634e487b7160e01b600052602160045260246000fd5b9052565b878152602081018790526001600160a01b038681166040830152851660608201526080810184905260a0810183905260e08101612dbe60c0830184612d5c565b98975050505050505050565b600080600060608486031215612ddf57600080fd5b612de884612d00565b9250612df660208501612d00565b929592945050506040919091013590565b634e487b7160e01b600052604160045260246000fd5b6000806001600160401b03841115612e3757612e37612e07565b50604051601f19601f85018116603f011681018181106001600160401b0382111715612e6557612e65612e07565b604052838152905080828401851015612e7d57600080fd5b83836020830137600060208583010152509392505050565b600082601f830112612ea657600080fd5b6126f083833560208501612e1d565b600060208284031215612ec757600080fd5b81356001600160401b03811115612edd57600080fd5b61213484828501612e95565b8681526001600160a01b038681166020830152851660408201526060810184905260c08101612f1b6080830185612d5c565b8260a0830152979650505050505050565b80358015158114612d1757600080fd5b60008060408385031215612f4f57600080fd5b82356001600160401b03811115612f6557600080fd5b612f7185828601612e95565b925050612f8060208401612f2c565b90509250929050565b600060208284031215612f9b57600080fd5b6126f082612d00565b60008060408385031215612fb757600080fd5b82356001600160401b03811115612fcd57600080fd5b612fd985828601612e95565b95602094909401359450505050565b60008060008060808587031215612ffe57600080fd5b84356001600160401b0381111561301457600080fd5b61302087828801612e95565b9450506020850135925061303660408601612d00565b9396929550929360600135925050565b602080825282518282018190526000918401906040840190835b818110156130db578351805184526020810151602085015260018060a01b03604082015116604085015260018060a01b0360608201511660608501526080810151608085015260a081015160a085015260c081015190506130c460c0850182612d5c565b506020939093019260e09290920191600101613060565b509095945050505050565b600080604083850312156130f957600080fd5b61310283612d00565b9150612f8060208401612f2c565b6000806000806080858703121561312657600080fd5b61312f85612d00565b935061313d60208601612d00565b92506040850135915060608501356001600160401b0381111561315f57600080fd5b8501601f8101871361317057600080fd5b61317f87823560208401612e1d565b91505092959194509250565b600080600080600060a086880312156131a357600080fd5b85356001600160401b038111156131b957600080fd5b6131c588828901612e95565b955050602086013593506131db60408701612d00565b92506131e960608701612d00565b949793965091946080013592915050565b6000806040838503121561320d57600080fd5b61321683612d00565b9150612f8060208401612d00565b634e487b7160e01b600052601160045260246000fd5b8082018082111561080857610808613224565b600181811c9082168061326157607f821691505b60208210810361328157634e487b7160e01b600052602260045260246000fd5b50919050565b6001600160a01b03929092168252602082015260400190565b6020808252601b908201527a13db9b1e481bdddb995c881bdc881b585a5b8818dbdb9d1c9858dd602a1b604082015260600190565b600082516132e7818460208701612c89565b9190910192915050565b634e487b7160e01b600052603260045260246000fd5b60006001820161331957613319613224565b5060010190565b6020808252600b908201526a27b7363c9039b2b63632b960a91b604082015260600190565b6001600160a01b038581168252841660208201526040810183905260806060820181905260009061337890830184612cad565b9695505050505050565b60006020828403121561339457600080fd5b81516126f081612c3d565b600083516133b1818460208801612c89565b8351908301906133c5818360208801612c89565b01949350505050565b8181038181111561080857610808613224565b634e487b7160e01b600052603160045260246000fdfe60f91a26281f20fb528663f4da55773c83e2ee8a7a5dddb6d1753749e81dc49ba2646970667358221220ca23be8124da2cbbc925af9e5969f0d4dda4aeae1e0d71f0a2520c5d818f3c6e64736f6c634300081c0033",
  "linkReferences": {},
  "deployedLinkReferences": {}
}