{
  "_format": "hh-sol-artifact-1",
  "contractName": "IdolCardSystem",
  "sourceName": "contracts/IdolCardSystem.sol",
  "abi": [
    {
      "inputs": [
        {
          "internalType": "address",
          "name": "_cardManager",
          "type": "address"
        },
        {
          "internalType": "address",
          "name": "_tradeManager",
          "type": "address"
        }
      ],
      "stateMutability": "nonpayable",
      "type": "constructor"
    },
    {
      "inputs": [
        {
          "internalType": "string",
          "name": "uid",
          "type": "string"
        }
      ],
      "name": "approveTransfer",
      "outputs": [],
      "stateMutability": "nonpayable",
      "type": "function"
    },
    {
      "inputs": [
        {
          "internalType": "string",
          "name": "uid",
          "type": "string"
        },
        {
          "internalType": "address",
          "name": "recipient",
          "type": "address"
        }
      ],
      "name": "bindCardUID",
      "outputs": [],
      "stateMutability": "nonpayable",
      "type": "function"
    },
    {
      "inputs": [
        {
          "internalType": "uint256",
          "name": "tradeId",
          "type": "uint256"
        }
      ],
      "name": "buyerSignTrade",
      "outputs": [],
      "stateMutability": "payable",
      "type": "function"
    },
    {
      "inputs": [
        {
          "internalType": "string",
          "name": "uid",
          "type": "string"
        }
      ],
      "name": "cancelResale",
      "outputs": [],
      "stateMutability": "nonpayable",
      "type": "function"
    },
    {
      "inputs": [],
      "name": "cardManager",
      "outputs": [
        {
          "internalType": "contract ICardManager",
          "name": "",
          "type": "address"
        }
      ],
      "stateMutability": "view",
      "type": "function"
    },
    {
      "inputs": [
        {
          "internalType": "string",
          "name": "uid",
          "type": "string"
        },
        {
          "internalType": "uint256",
          "name": "price",
          "type": "uint256"
        }
      ],
      "name": "createTrade",
      "outputs": [],
      "stateMutability": "nonpayable",
      "type": "function"
    },
    {
      "inputs": [
        {
          "internalType": "uint256",
          "name": "tradeId",
          "type": "uint256"
        }
      ],
      "name": "finalizeTrade",
      "outputs": [],
      "stateMutability": "nonpayable",
      "type": "function"
    },
    {
      "inputs": [],
      "name": "getAvailableCards",
      "outputs": [
        {
          "components": [
            {
              "internalType": "string",
              "name": "uid",
              "type": "string"
            },
            {
              "internalType": "string",
              "name": "idolGroup",
              "type": "string"
            },
            {
              "internalType": "string",
              "name": "member",
              "type": "string"
            },
            {
              "internalType": "string",
              "name": "cardNumber",
              "type": "string"
            },
            {
              "internalType": "uint256",
              "name": "listPrice",
              "type": "uint256"
            },
            {
              "internalType": "string",
              "name": "photoURI",
              "type": "string"
            },
            {
              "internalType": "bool",
              "name": "isSold",
              "type": "bool"
            }
          ],
          "internalType": "struct CardDisplay[]",
          "name": "",
          "type": "tuple[]"
        }
      ],
      "stateMutability": "view",
      "type": "function"
    },
    {
      "inputs": [],
      "name": "getAvailableTrades",
      "outputs": [
        {
          "components": [
            {
              "internalType": "uint256",
              "name": "tradeId",
              "type": "uint256"
            },
            {
              "internalType": "uint256",
              "name": "tokenId",
              "type": "uint256"
            },
            {
              "internalType": "address",
              "name": "seller",
              "type": "address"
            },
            {
              "internalType": "address",
              "name": "buyer",
              "type": "address"
            },
            {
              "internalType": "uint256",
              "name": "price",
              "type": "uint256"
            },
            {
              "internalType": "uint256",
              "name": "timestamp",
              "type": "uint256"
            },
            {
              "internalType": "uint8",
              "name": "status",
              "type": "uint8"
            }
          ],
          "internalType": "struct Trade[]",
          "name": "",
          "type": "tuple[]"
        }
      ],
      "stateMutability": "view",
      "type": "function"
    },
    {
      "inputs": [],
      "name": "getCardPrice",
      "outputs": [
        {
          "internalType": "uint256",
          "name": "",
          "type": "uint256"
        }
      ],
      "stateMutability": "view",
      "type": "function"
    },
    {
      "inputs": [],
      "name": "getCompanyCards",
      "outputs": [
        {
          "components": [
            {
              "internalType": "string",
              "name": "uid",
              "type": "string"
            },
            {
              "internalType": "string",
              "name": "idolGroup",
              "type": "string"
            },
            {
              "internalType": "string",
              "name": "member",
              "type": "string"
            },
            {
              "internalType": "string",
              "name": "cardNumber",
              "type": "string"
            },
            {
              "internalType": "uint256",
              "name": "listPrice",
              "type": "uint256"
            },
            {
              "internalType": "string",
              "name": "photoURI",
              "type": "string"
            },
            {
              "internalType": "bool",
              "name": "isSold",
              "type": "bool"
            }
          ],
          "internalType": "struct CardDisplay[]",
          "name": "",
          "type": "tuple[]"
        }
      ],
      "stateMutability": "view",
      "type": "function"
    },
    {
      "inputs": [
        {
          "internalType": "string",
          "name": "uid",
          "type": "string"
        }
      ],
      "name": "getNFTHolder",
      "outputs": [
        {
          "internalType": "address",
          "name": "",
          "type": "address"
        }
      ],
      "stateMutability": "view",
      "type": "function"
    },
    {
      "inputs": [],
      "name": "getPendingCardRequests",
      "outputs": [
        {
          "components": [
            {
              "internalType": "string",
              "name": "uid",
              "type": "string"
            },
            {
              "internalType": "address",
              "name": "buyer",
              "type": "address"
            },
            {
              "internalType": "uint256",
              "name": "amount",
              "type": "uint256"
            },
            {
              "internalType": "uint256",
              "name": "timestamp",
              "type": "uint256"
            }
          ],
          "internalType": "struct PendingRequest[]",
          "name": "",
          "type": "tuple[]"
        }
      ],
      "stateMutability": "view",
      "type": "function"
    },
    {
      "inputs": [],
      "name": "getResaleCards",
      "outputs": [
        {
          "components": [
            {
              "internalType": "string",
              "name": "uid",
              "type": "string"
            },
            {
              "internalType": "string",
              "name": "idolGroup",
              "type": "string"
            },
            {
              "internalType": "string",
              "name": "member",
              "type": "string"
            },
            {
              "internalType": "string",
              "name": "cardNumber",
              "type": "string"
            },
            {
              "internalType": "uint256",
              "name": "listPrice",
              "type": "uint256"
            },
            {
              "internalType": "string",
              "name": "photoURI",
              "type": "string"
            },
            {
              "internalType": "bool",
              "name": "isSold",
              "type": "bool"
            }
          ],
          "internalType": "struct CardDisplay[]",
          "name": "",
          "type": "tuple[]"
        }
      ],
      "stateMutability": "view",
      "type": "function"
    },
    {
      "inputs": [
        {
          "internalType": "uint256",
          "name": "tradeId",
          "type": "uint256"
        }
      ],
      "name": "getTrade",
      "outputs": [
        {
          "internalType": "uint256",
          "name": "tokenId",
          "type": "uint256"
        },
        {
          "internalType": "address",
          "name": "seller",
          "type": "address"
        },
        {
          "internalType": "address",
          "name": "buyer",
          "type": "address"
        },
        {
          "internalType": "uint256",
          "name": "price",
          "type": "uint256"
        },
        {
          "internalType": "uint8",
          "name": "status",
          "type": "uint8"
        },
        {
          "internalType": "uint256",
          "name": "deadline",
          "type": "uint256"
        }
      ],
      "stateMutability": "view",
      "type": "function"
    },
    {
      "inputs": [],
      "name": "getTradeAnalytics",
      "outputs": [
        {
          "internalType": "uint256",
          "name": "totalTrades",
          "type": "uint256"
        },
        {
          "internalType": "uint256",
          "name": "completedTrades",
          "type": "uint256"
        },
        {
          "internalType": "uint256",
          "name": "pendingTrades",
          "type": "uint256"
        },
        {
          "internalType": "uint256",
          "name": "totalVolume",
          "type": "uint256"
        }
      ],
      "stateMutability": "view",
      "type": "function"
    },
    {
      "inputs": [
        {
          "internalType": "string",
          "name": "uid",
          "type": "string"
        }
      ],
      "name": "getTradesByUID",
      "outputs": [
        {
          "components": [
            {
              "internalType": "uint256",
              "name": "tradeId",
              "type": "uint256"
            },
            {
              "internalType": "uint256",
              "name": "tokenId",
              "type": "uint256"
            },
            {
              "internalType": "address",
              "name": "seller",
              "type": "address"
            },
            {
              "internalType": "address",
              "name": "buyer",
              "type": "address"
            },
            {
              "internalType": "uint256",
              "name": "price",
              "type": "uint256"
            },
            {
              "internalType": "uint256",
              "name": "timestamp",
              "type": "uint256"
            },
            {
              "internalType": "uint8",
              "name": "status",
              "type": "uint8"
            }
          ],
          "internalType": "struct Trade[]",
          "name": "",
          "type": "tuple[]"
        }
      ],
      "stateMutability": "view",
      "type": "function"
    },
    {
      "inputs": [
        {
          "internalType": "address",
          "name": "user",
          "type": "address"
        }
      ],
      "name": "getUserCards",
      "outputs": [
        {
          "components": [
            {
              "internalType": "string",
              "name": "uid",
              "type": "string"
            },
            {
              "internalType": "string",
              "name": "idolGroup",
              "type": "string"
            },
            {
              "internalType": "string",
              "name": "member",
              "type": "string"
            },
            {
              "internalType": "string",
              "name": "cardNumber",
              "type": "string"
            },
            {
              "internalType": "uint256",
              "name": "listPrice",
              "type": "uint256"
            },
            {
              "internalType": "string",
              "name": "photoURI",
              "type": "string"
            },
            {
              "internalType": "bool",
              "name": "isSold",
              "type": "bool"
            }
          ],
          "internalType": "struct CardDisplay[]",
          "name": "",
          "type": "tuple[]"
        }
      ],
      "stateMutability": "view",
      "type": "function"
    },
    {
      "inputs": [
        {
          "internalType": "address",
          "name": "user",
          "type": "address"
        }
      ],
      "name": "getUserTrades",
      "outputs": [
        {
          "components": [
            {
              "internalType": "uint256",
              "name": "tradeId",
              "type": "uint256"
            },
            {
              "internalType": "uint256",
              "name": "tokenId",
              "type": "uint256"
            },
            {
              "internalType": "address",
              "name": "seller",
              "type": "address"
            },
            {
              "internalType": "address",
              "name": "buyer",
              "type": "address"
            },
            {
              "internalType": "uint256",
              "name": "price",
              "type": "uint256"
            },
            {
              "internalType": "uint256",
              "name": "timestamp",
              "type": "uint256"
            },
            {
              "internalType": "uint8",
              "name": "status",
              "type": "uint8"
            }
          ],
          "internalType": "struct Trade[]",
          "name": "",
          "type": "tuple[]"
        }
      ],
      "stateMutability": "view",
      "type": "function"
    },
    {
      "inputs": [
        {
          "internalType": "string",
          "name": "uid",
          "type": "string"
        },
        {
          "internalType": "uint256",
          "name": "price",
          "type": "uint256"
        }
      ],
      "name": "listCardForResale",
      "outputs": [],
      "stateMutability": "nonpayable",
      "type": "function"
    },
    {
      "inputs": [],
      "name": "owner",
      "outputs": [
        {
          "internalType": "address",
          "name": "",
          "type": "address"
        }
      ],
      "stateMutability": "view",
      "type": "function"
    },
    {
      "inputs": [
        {
          "internalType": "string",
          "name": "uid",
          "type": "string"
        },
        {
          "internalType": "address",
          "name": "recipient",
          "type": "address"
        }
      ],
      "name": "purchaseResaleCard",
      "outputs": [],
      "stateMutability": "payable",
      "type": "function"
    },
    {
      "inputs": [
        {
          "internalType": "string",
          "name": "uid",
          "type": "string"
        },
        {
          "internalType": "address",
          "name": "recipient",
          "type": "address"
        }
      ],
      "name": "purchaseSpecificCard",
      "outputs": [
        {
          "internalType": "string",
          "name": "",
          "type": "string"
        }
      ],
      "stateMutability": "payable",
      "type": "function"
    },
    {
      "inputs": [
        {
          "internalType": "string",
          "name": "uid",
          "type": "string"
        },
        {
          "internalType": "uint256",
          "name": "tokenId",
          "type": "uint256"
        },
        {
          "internalType": "address",
          "name": "buyer",
          "type": "address"
        },
        {
          "internalType": "uint256",
          "name": "price",
          "type": "uint256"
        }
      ],
      "name": "recordPrimaryTrade",
      "outputs": [],
      "stateMutability": "nonpayable",
      "type": "function"
    },
    {
      "inputs": [
        {
          "internalType": "string",
          "name": "uid",
          "type": "string"
        },
        {
          "internalType": "uint256",
          "name": "tokenId",
          "type": "uint256"
        },
        {
          "internalType": "address",
          "name": "seller",
          "type": "address"
        },
        {
          "internalType": "address",
          "name": "buyer",
          "type": "address"
        },
        {
          "internalType": "uint256",
          "name": "price",
          "type": "uint256"
        }
      ],
      "name": "recordSecondaryTrade",
      "outputs": [],
      "stateMutability": "nonpayable",
      "type": "function"
    },
    {
      "inputs": [
        {
          "internalType": "string",
          "name": "uid",
          "type": "string"
        }
      ],
      "name": "rejectTransfer",
      "outputs": [],
      "stateMutability": "nonpayable",
      "type": "function"
    },
    {
      "inputs": [
        {
          "internalType": "string",
          "name": "uid",
          "type": "string"
        },
        {
          "internalType": "address",
          "name": "recipient",
          "type": "address"
        }
      ],
      "name": "requestCard",
      "outputs": [],
      "stateMutability": "nonpayable",
      "type": "function"
    },
    {
      "inputs": [
        {
          "internalType": "uint256",
          "name": "tradeId",
          "type": "uint256"
        }
      ],
      "name": "sellerSignTrade",
      "outputs": [],
      "stateMutability": "nonpayable",
      "type": "function"
    },
    {
      "inputs": [
        {
          "internalType": "uint256",
          "name": "newPrice",
          "type": "uint256"
        },
        {
          "internalType": "string",
          "name": "idolGroup",
          "type": "string"
        },
        {
          "internalType": "string",
          "name": "member",
          "type": "string"
        },
        {
          "internalType": "string",
          "name": "cardNumber",
          "type": "string"
        },
        {
          "internalType": "uint256",
          "name": "listPrice",
          "type": "uint256"
        },
        {
          "internalType": "string",
          "name": "photoURI",
          "type": "string"
        },
        {
          "internalType": "uint256",
          "name": "amount",
          "type": "uint256"
        }
      ],
      "name": "setCardPrice",
      "outputs": [
        {
          "internalType": "string",
          "name": "",
          "type": "string"
        }
      ],
      "stateMutability": "nonpayable",
      "type": "function"
    },
    {
      "inputs": [
        {
          "internalType": "string",
          "name": "uid",
          "type": "string"
        },
        {
          "internalType": "uint256",
          "name": "tokenId",
          "type": "uint256"
        }
      ],
      "name": "setUidToTokenId",
      "outputs": [],
      "stateMutability": "nonpayable",
      "type": "function"
    },
    {
      "inputs": [],
      "name": "tradeManager",
      "outputs": [
        {
          "internalType": "contract ITradeManager",
          "name": "",
          "type": "address"
        }
      ],
      "stateMutability": "view",
      "type": "function"
    },
    {
      "inputs": [
        {
          "internalType": "string",
          "name": "uid",
          "type": "string"
        }
      ],
      "name": "uidToTokenId",
      "outputs": [
        {
          "internalType": "uint256",
          "name": "",
          "type": "uint256"
        }
      ],
      "stateMutability": "view",
      "type": "function"
    }
  ],
  "bytecode": "0x6080604052348015600f57600080fd5b50604051611ef5380380611ef5833981016040819052602c916087565b600080546001600160a01b039384166001600160a01b031991821617909155600180549290931691811691909117909155600280549091163317905560b5565b80516001600160a01b0381168114608257600080fd5b919050565b60008060408385031215609957600080fd5b60a083606c565b915060ac60208401606c565b90509250929050565b611e31806100c46000396000f3fe6080604052600436106101835760003560e01c8063927c7742116100d2578063927c7742146103d55780639f5dd78b146104025780639fd5180b14610422578063a216bbfa14610437578063aa20369c14610457578063abf4002914610479578063bef9813f1461048e578063c58bd087146104ae578063cc20a5fa146104c3578063d228a98b146104f1578063d2bc1aa314610511578063d58c71a514610531578063d79d63be14610551578063e0c7d94614610566578063ef8b8d3a14610586578063fa00d9d5146105a657600080fd5b806301ffd59a146101885780630d8b6fd9146101aa5780632db25e05146101ca578063527111af1461022b5780636beefffa146102605780636ebd1f2a14610280578063753c0eea146102ad5780637796781b146102c057806379e4a5b7146102d35780637c7b6c2e146102f557806383c44eb31461031557806384ae60341461033557806388d9f40d146103555780638b3266e2146103755780638da5cb5b1461039557806391336bfb146103b5575b600080fd5b34801561019457600080fd5b506101a86101a33660046111d8565b6105c6565b005b3480156101b657600080fd5b506101a86101c536600461121c565b61062d565b3480156101d657600080fd5b506101ea6101e5366004611258565b6106c5565b604080519687526001600160a01b0395861660208801529390941692850192909252606084015260ff16608083015260a082015260c0015b60405180910390f35b34801561023757600080fd5b50610240610753565b604080519485526020850193909352918301526060820152608001610222565b34801561026c57600080fd5b506101a861027b366004611289565b6107de565b34801561028c57600080fd5b506000546102a0906001600160a01b031681565b60405161022291906112da565b6101a86102bb366004611289565b610810565b6101a86102ce366004611258565b61087a565b3480156102df57600080fd5b506102e86108c1565b604051610222919061133e565b34801561030157600080fd5b506101a86103103660046111d8565b610937565b34801561032157600080fd5b506101a861033036600461142f565b610969565b34801561034157600080fd5b506102a061035036600461121c565b6109d7565b34801561036157600080fd5b506102e861037036600461148f565b610a4f565b34801561038157600080fd5b506001546102a0906001600160a01b031681565b3480156103a157600080fd5b506002546102a0906001600160a01b031681565b3480156103c157600080fd5b506101a86103d0366004611289565b610ac5565b3480156103e157600080fd5b506103f56103f036600461148f565b610af7565b60405161022291906114ac565b610415610410366004611289565b610b6d565b6040516102229190611546565b34801561042e57600080fd5b506103f5610bf0565b34801561044357600080fd5b506101a861045236600461121c565b610c62565b34801561046357600080fd5b5061046c610cbc565b6040516102229190611559565b34801561048557600080fd5b506102e8610d2d565b34801561049a57600080fd5b506101a86104a93660046115e5565b610d76565b3480156104ba57600080fd5b506102e8610de7565b3480156104cf57600080fd5b506104e36104de36600461121c565b610e30565b604051908152602001610222565b3480156104fd57600080fd5b506101a861050c3660046111d8565b610ea2565b34801561051d57600080fd5b506103f561052c36600461121c565b610ed4565b34801561053d57600080fd5b506101a861054c366004611258565b610f05565b34801561055d57600080fd5b506104e3610f36565b34801561057257600080fd5b50610415610581366004611658565b610fae565b34801561059257600080fd5b506101a86105a136600461121c565b61106a565b3480156105b257600080fd5b506101a86105c1366004611258565b61109a565b60005460405162ffeacd60e11b81526001600160a01b03909116906301ffd59a906105f79085908590600401611734565b600060405180830381600087803b15801561061157600080fd5b505af1158015610625573d6000803e3d6000fd5b505050505050565b6002546001600160a01b031633146106605760405162461bcd60e51b815260040161065790611756565b60405180910390fd5b600054604051630d8b6fd960e01b81526001600160a01b0390911690630d8b6fd990610690908490600401611546565b600060405180830381600087803b1580156106aa57600080fd5b505af11580156106be573d6000803e3d6000fd5b5050505050565b600154604051632db25e0560e01b815260048101839052600091829182918291829182916001600160a01b0390911690632db25e059060240160c060405180830381865afa15801561071b573d6000803e3d6000fd5b505050506040513d601f19601f8201168201806040525081019061073f9190611790565b949c939b5091995097509550909350915050565b600080600080600160009054906101000a90046001600160a01b03166001600160a01b031663527111af6040518163ffffffff1660e01b8152600401608060405180830381865afa1580156107ac573d6000803e3d6000fd5b505050506040513d601f19601f820116820180604052508101906107d091906117fc565b935093509350935090919293565b600054604051633875542160e11b81526001600160a01b03909116906370eaa842906105f79085908590600401611832565b600054604051633a9e077560e11b81526001600160a01b039091169063753c0eea9034906108449086908690600401611832565b6000604051808303818588803b15801561085d57600080fd5b505af1158015610871573d6000803e3d6000fd5b50505050505050565b600154604051636ada826760e11b8152600481018390526001600160a01b039091169063d5b504ce9034906024016000604051808303818588803b15801561061157600080fd5b60008054604080516379e4a5b760e01b815290516060936001600160a01b03909316926379e4a5b792600480820193918290030181865afa15801561090a573d6000803e3d6000fd5b505050506040513d6000823e601f3d908101601f1916820160405261093291908101906118d4565b905090565b600154604051633e3db61760e11b81526001600160a01b0390911690637c7b6c2e906105f79085908590600401611734565b6001546040516383c44eb360e01b81526001600160a01b03909116906383c44eb39061099f908790879087908790600401611a96565b600060405180830381600087803b1580156109b957600080fd5b505af11580156109cd573d6000803e3d6000fd5b5050505050505050565b6000805460405163212b980d60e21b81526001600160a01b03909116906384ae603490610a08908590600401611546565b602060405180830381865afa158015610a25573d6000803e3d6000fd5b505050506040513d601f19601f82011682018060405250810190610a499190611ace565b92915050565b6000546040516388d9f40d60e01b81526060916001600160a01b0316906388d9f40d90610a809085906004016112da565b600060405180830381865afa158015610a9d573d6000803e3d6000fd5b505050506040513d6000823e601f3d908101601f19168201604052610a4991908101906118d4565b6000546040516391336bfb60e01b81526001600160a01b03909116906391336bfb906105f79085908590600401611832565b60015460405163493e3ba160e11b81526060916001600160a01b03169063927c774290610b289085906004016112da565b600060405180830381865afa158015610b45573d6000803e3d6000fd5b505050506040513d6000823e601f3d908101601f19168201604052610a499190810190611aeb565b600054604051639f5dd78b60e01b81526060916001600160a01b031690639f5dd78b903490610ba29087908790600401611832565b60006040518083038185885af1158015610bc0573d6000803e3d6000fd5b50505050506040513d6000823e601f3d908101601f19168201604052610be99190810190611bf2565b9392505050565b60015460408051639fd5180b60e01b815290516060926001600160a01b031691639fd5180b9160048083019260009291908290030181865afa158015610c3a573d6000803e3d6000fd5b505050506040513d6000823e601f3d908101601f191682016040526109329190810190611aeb565b6002546001600160a01b03163314610c8c5760405162461bcd60e51b815260040161065790611756565b60005460405163510b5dfd60e11b81526001600160a01b039091169063a216bbfa90610690908490600401611546565b6000805460408051632a880da760e21b815290516060936001600160a01b039093169263aa20369c92600480820193918290030181865afa158015610d05573d6000803e3d6000fd5b505050506040513d6000823e601f3d908101601f191682016040526109329190810190611c26565b600080546040805163abf4002960e01b815290516060936001600160a01b039093169263abf4002992600480820193918290030181865afa15801561090a573d6000803e3d6000fd5b60015460405163bef9813f60e01b81526001600160a01b039091169063bef9813f90610dae9088908890889088908890600401611d36565b600060405180830381600087803b158015610dc857600080fd5b505af1158015610ddc573d6000803e3d6000fd5b505050505050505050565b600080546040805163c58bd08760e01b815290516060936001600160a01b039093169263c58bd08792600480820193918290030181865afa15801561090a573d6000803e3d6000fd5b60015460405163661052fd60e11b81526000916001600160a01b03169063cc20a5fa90610e61908590600401611546565b602060405180830381865afa158015610e7e573d6000803e3d6000fd5b505050506040513d601f19601f82011682018060405250810190610a499190611d74565b60015460405163d228a98b60e01b81526001600160a01b039091169063d228a98b906105f79085908590600401611734565b60015460405163d2bc1aa360e01b81526060916001600160a01b03169063d2bc1aa390610b28908590600401611546565b6001546040516302930d7560e11b8152600481018390526001600160a01b03909116906305261aea90602401610690565b60008060009054906101000a90046001600160a01b03166001600160a01b031663d79d63be6040518163ffffffff1660e01b8152600401602060405180830381865afa158015610f8a573d6000803e3d6000fd5b505050506040513d601f19601f820116820180604052508101906109329190611d74565b6002546060906001600160a01b03163314610fdb5760405162461bcd60e51b815260040161065790611756565b600054604051637063eca360e11b81526001600160a01b039091169063e0c7d94690611017908b908b908b908b908b908b908b90600401611d8d565b6000604051808303816000875af1158015611036573d6000803e3d6000fd5b505050506040513d6000823e601f3d908101601f1916820160405261105e9190810190611bf2565b98975050505050505050565b6000546040516377c5c69d60e11b81526001600160a01b039091169063ef8b8d3a90610690908490600401611546565b60015460405163629addd960e11b8152600481018390526001600160a01b039091169063c535bbb290602401610690565b634e487b7160e01b600052604160045260246000fd5b60405160e081016001600160401b0381118282101715611103576111036110cb565b60405290565b604051608081016001600160401b0381118282101715611103576111036110cb565b604051601f8201601f191681016001600160401b0381118282101715611153576111536110cb565b604052919050565b60006001600160401b03821115611174576111746110cb565b50601f01601f191660200190565b600082601f83011261119357600080fd5b81356111a66111a18261115b565b61112b565b8181528460208386010111156111bb57600080fd5b816020850160208301376000918101602001919091529392505050565b600080604083850312156111eb57600080fd5b82356001600160401b0381111561120157600080fd5b61120d85828601611182565b95602094909401359450505050565b60006020828403121561122e57600080fd5b81356001600160401b0381111561124457600080fd5b61125084828501611182565b949350505050565b60006020828403121561126a57600080fd5b5035919050565b6001600160a01b038116811461128657600080fd5b50565b6000806040838503121561129c57600080fd5b82356001600160401b038111156112b257600080fd5b6112be85828601611182565b92505060208301356112cf81611271565b809150509250929050565b6001600160a01b0391909116815260200190565b60005b838110156113095781810151838201526020016112f1565b50506000910152565b6000815180845261132a8160208601602086016112ee565b601f01601f19169290920160200192915050565b6000602082016020835280845180835260408501915060408160051b86010192506020860160005b8281101561142357603f198786030184528151805160e0875261138c60e0880182611312565b9050602082015187820360208901526113a58282611312565b915050604082015187820360408901526113bf8282611312565b915050606082015187820360608901526113d98282611312565b9150506080820151608088015260a082015187820360a08901526113fd8282611312565b60c093840151151598909301979097525094506020938401939190910190600101611366565b50929695505050505050565b6000806000806080858703121561144557600080fd5b84356001600160401b0381111561145b57600080fd5b61146787828801611182565b94505060208501359250604085013561147f81611271565b9396929550929360600135925050565b6000602082840312156114a157600080fd5b8135610be981611271565b602080825282518282018190526000918401906040840190835b8181101561153b578351805184526020810151602085015260018060a01b03604082015116604085015260018060a01b0360608201511660608501526080810151608085015260a081015160a085015260ff60c08201511660c08501525060e0830192506020840193506001810190506114c6565b509095945050505050565b602081526000610be96020830184611312565b6000602082016020835280845180835260408501915060408160051b86010192506020860160005b8281101561142357603f1987860301845281518051608087526115a76080880182611312565b6020838101516001600160a01b031689820152604080850151908a015260609384015193909801929092525094938401939190910190600101611581565b600080600080600060a086880312156115fd57600080fd5b85356001600160401b0381111561161357600080fd5b61161f88828901611182565b95505060208601359350604086013561163781611271565b9250606086013561164781611271565b949793965091946080013592915050565b600080600080600080600060e0888a03121561167357600080fd5b8735965060208801356001600160401b0381111561169057600080fd5b61169c8a828b01611182565b96505060408801356001600160401b038111156116b857600080fd5b6116c48a828b01611182565b95505060608801356001600160401b038111156116e057600080fd5b6116ec8a828b01611182565b9450506080880135925060a08801356001600160401b0381111561170f57600080fd5b61171b8a828b01611182565b979a969950949793969295929450505060c09091013590565b6040815260006117476040830185611312565b90508260208301529392505050565b6020808252600a908201526927b7363c9037bbb732b960b11b604082015260600190565b805160ff8116811461178b57600080fd5b919050565b60008060008060008060c087890312156117a957600080fd5b865160208801519096506117bc81611271565b60408801519095506117cd81611271565b606088015190945092506117e36080880161177a565b9150600060a08801519050809150509295509295509295565b6000806000806080858703121561181257600080fd5b505082516020840151604085015160609095015191969095509092509050565b6040815260006118456040830185611312565b905060018060a01b03831660208301529392505050565b60006001600160401b03821115611875576118756110cb565b5060051b60200190565b600082601f83011261189057600080fd5b815161189e6111a18261115b565b8181528460208386010111156118b357600080fd5b6112508260208301602087016112ee565b8051801515811461178b57600080fd5b6000602082840312156118e657600080fd5b81516001600160401b038111156118fc57600080fd5b8201601f8101841361190d57600080fd5b805161191b6111a18261185c565b8082825260208201915060208360051b85010192508683111561193d57600080fd5b602084015b83811015611a8b5780516001600160401b0381111561196057600080fd5b850160e0818a03601f1901121561197657600080fd5b61197e6110e1565b60208201516001600160401b0381111561199757600080fd5b6119a68b60208386010161187f565b82525060408201516001600160401b038111156119c257600080fd5b6119d18b60208386010161187f565b60208301525060608201516001600160401b038111156119f057600080fd5b6119ff8b60208386010161187f565b60408301525060808201516001600160401b03811115611a1e57600080fd5b611a2d8b60208386010161187f565b60608301525060a0820151608082015260c08201516001600160401b03811115611a5657600080fd5b611a658b60208386010161187f565b60a083015250611a7760e083016118c4565b60c082015284525060209283019201611942565b509695505050505050565b608081526000611aa96080830187611312565b6020830195909552506001600160a01b03929092166040830152606090910152919050565b600060208284031215611ae057600080fd5b8151610be981611271565b600060208284031215611afd57600080fd5b81516001600160401b03811115611b1357600080fd5b8201601f81018413611b2457600080fd5b8051611b326111a18261185c565b80828252602082019150602060e08402850101925086831115611b5457600080fd5b6020840193505b82841015611be85760e08488031215611b7357600080fd5b611b7b6110e1565b84518152602080860151908201526040850151611b9781611271565b60408201526060850151611baa81611271565b60608201526080858101519082015260a08086015190820152611bcf60c0860161177a565b60c0820152825260e09390930192602090910190611b5b565b9695505050505050565b600060208284031215611c0457600080fd5b81516001600160401b03811115611c1a57600080fd5b6112508482850161187f565b600060208284031215611c3857600080fd5b81516001600160401b03811115611c4e57600080fd5b8201601f81018413611c5f57600080fd5b8051611c6d6111a18261185c565b8082825260208201915060208360051b850101925086831115611c8f57600080fd5b602084015b83811015611a8b5780516001600160401b03811115611cb257600080fd5b85016080818a03601f19011215611cc857600080fd5b611cd0611109565b60208201516001600160401b03811115611ce957600080fd5b611cf88b60208386010161187f565b8252506040820151611d0981611271565b60208281019190915260608381015160408401526080909301519282019290925284529283019201611c94565b60a081526000611d4960a0830188611312565b6020830196909652506001600160a01b03938416604082015291909216606082015260800152919050565b600060208284031215611d8657600080fd5b5051919050565b87815260e060208201526000611da660e0830189611312565b8281036040840152611db88189611312565b90508281036060840152611dcc8188611312565b905085608084015282810360a0840152611de68186611312565b9150508260c08301529897505050505050505056fea2646970667358221220366b46a2b7a632b4408d5fd65592ddffbe95d3993492021a632376a7a093862464736f6c634300081c0033",
  "linkReferences": {},
  "deployedLinkReferences": {}
}