{
  "_format": "hh-sol-artifact-1",
  "contractName": "CardManager",
  "sourceName": "contracts/modules/CardManager.sol",
  "abi": [
    {
      "inputs": [
        {
          "internalType": "string",
          "name": "name_",
          "type": "string"
        },
        {
          "internalType": "string",
          "name": "symbol_",
          "type": "string"
        },
        {
          "internalType": "address",
          "name": "initialOwner",
          "type": "address"
        }
      ],
      "stateMutability": "nonpayable",
      "type": "constructor"
    },
    {
      "inputs": [],
      "name": "ERC721EnumerableForbiddenBatchMint",
      "type": "error"
    },
    {
      "inputs": [
        {
          "internalType": "address",
          "name": "sender",
          "type": "address"
        },
        {
          "internalType": "uint256",
          "name": "tokenId",
          "type": "uint256"
        },
        {
          "internalType": "address",
          "name": "owner",
          "type": "address"
        }
      ],
      "name": "ERC721IncorrectOwner",
      "type": "error"
    },
    {
      "inputs": [
        {
          "internalType": "address",
          "name": "operator",
          "type": "address"
        },
        {
          "internalType": "uint256",
          "name": "tokenId",
          "type": "uint256"
        }
      ],
      "name": "ERC721InsufficientApproval",
      "type": "error"
    },
    {
      "inputs": [
        {
          "internalType": "address",
          "name": "approver",
          "type": "address"
        }
      ],
      "name": "ERC721InvalidApprover",
      "type": "error"
    },
    {
      "inputs": [
        {
          "internalType": "address",
          "name": "operator",
          "type": "address"
        }
      ],
      "name": "ERC721InvalidOperator",
      "type": "error"
    },
    {
      "inputs": [
        {
          "internalType": "address",
          "name": "owner",
          "type": "address"
        }
      ],
      "name": "ERC721InvalidOwner",
      "type": "error"
    },
    {
      "inputs": [
        {
          "internalType": "address",
          "name": "receiver",
          "type": "address"
        }
      ],
      "name": "ERC721InvalidReceiver",
      "type": "error"
    },
    {
      "inputs": [
        {
          "internalType": "address",
          "name": "sender",
          "type": "address"
        }
      ],
      "name": "ERC721InvalidSender",
      "type": "error"
    },
    {
      "inputs": [
        {
          "internalType": "uint256",
          "name": "tokenId",
          "type": "uint256"
        }
      ],
      "name": "ERC721NonexistentToken",
      "type": "error"
    },
    {
      "inputs": [
        {
          "internalType": "address",
          "name": "owner",
          "type": "address"
        },
        {
          "internalType": "uint256",
          "name": "index",
          "type": "uint256"
        }
      ],
      "name": "ERC721OutOfBoundsIndex",
      "type": "error"
    },
    {
      "inputs": [
        {
          "internalType": "address",
          "name": "owner",
          "type": "address"
        }
      ],
      "name": "OwnableInvalidOwner",
      "type": "error"
    },
    {
      "inputs": [
        {
          "internalType": "address",
          "name": "account",
          "type": "address"
        }
      ],
      "name": "OwnableUnauthorizedAccount",
      "type": "error"
    },
    {
      "anonymous": false,
      "inputs": [
        {
          "indexed": true,
          "internalType": "address",
          "name": "owner",
          "type": "address"
        },
        {
          "indexed": true,
          "internalType": "address",
          "name": "approved",
          "type": "address"
        },
        {
          "indexed": true,
          "internalType": "uint256",
          "name": "tokenId",
          "type": "uint256"
        }
      ],
      "name": "Approval",
      "type": "event"
    },
    {
      "anonymous": false,
      "inputs": [
        {
          "indexed": true,
          "internalType": "address",
          "name": "owner",
          "type": "address"
        },
        {
          "indexed": true,
          "internalType": "address",
          "name": "operator",
          "type": "address"
        },
        {
          "indexed": false,
          "internalType": "bool",
          "name": "approved",
          "type": "bool"
        }
      ],
      "name": "ApprovalForAll",
      "type": "event"
    },
    {
      "anonymous": false,
      "inputs": [
        {
          "indexed": false,
          "internalType": "uint256",
          "name": "_fromTokenId",
          "type": "uint256"
        },
        {
          "indexed": false,
          "internalType": "uint256",
          "name": "_toTokenId",
          "type": "uint256"
        }
      ],
      "name": "BatchMetadataUpdate",
      "type": "event"
    },
    {
      "anonymous": false,
      "inputs": [
        {
          "indexed": false,
          "internalType": "string",
          "name": "uid",
          "type": "string"
        },
        {
          "indexed": true,
          "internalType": "address",
          "name": "buyer",
          "type": "address"
        },
        {
          "indexed": false,
          "internalType": "uint256",
          "name": "tokenId",
          "type": "uint256"
        }
      ],
      "name": "CardApproved",
      "type": "event"
    },
    {
      "anonymous": false,
      "inputs": [
        {
          "indexed": false,
          "internalType": "string",
          "name": "uid",
          "type": "string"
        },
        {
          "indexed": false,
          "internalType": "string",
          "name": "idolGroup",
          "type": "string"
        },
        {
          "indexed": false,
          "internalType": "string",
          "name": "member",
          "type": "string"
        },
        {
          "indexed": false,
          "internalType": "string",
          "name": "cardNumber",
          "type": "string"
        },
        {
          "indexed": false,
          "internalType": "uint256",
          "name": "listPrice",
          "type": "uint256"
        },
        {
          "indexed": false,
          "internalType": "string",
          "name": "photoURI",
          "type": "string"
        }
      ],
      "name": "CardInfoUpdatedWithUID",
      "type": "event"
    },
    {
      "anonymous": false,
      "inputs": [
        {
          "indexed": true,
          "internalType": "address",
          "name": "buyer",
          "type": "address"
        },
        {
          "indexed": false,
          "internalType": "uint256",
          "name": "amount",
          "type": "uint256"
        },
        {
          "indexed": false,
          "internalType": "string",
          "name": "uid",
          "type": "string"
        }
      ],
      "name": "CardPurchased",
      "type": "event"
    },
    {
      "anonymous": false,
      "inputs": [
        {
          "indexed": false,
          "internalType": "string",
          "name": "uid",
          "type": "string"
        },
        {
          "indexed": false,
          "internalType": "address",
          "name": "buyer",
          "type": "address"
        }
      ],
      "name": "CardRequestRejected",
      "type": "event"
    },
    {
      "anonymous": false,
      "inputs": [
        {
          "indexed": true,
          "internalType": "address",
          "name": "buyer",
          "type": "address"
        },
        {
          "indexed": false,
          "internalType": "string",
          "name": "uid",
          "type": "string"
        }
      ],
      "name": "CardRequested",
      "type": "event"
    },
    {
      "anonymous": false,
      "inputs": [
        {
          "indexed": false,
          "internalType": "uint256",
          "name": "_tokenId",
          "type": "uint256"
        }
      ],
      "name": "MetadataUpdate",
      "type": "event"
    },
    {
      "anonymous": false,
      "inputs": [
        {
          "indexed": true,
          "internalType": "address",
          "name": "previousOwner",
          "type": "address"
        },
        {
          "indexed": true,
          "internalType": "address",
          "name": "newOwner",
          "type": "address"
        }
      ],
      "name": "OwnershipTransferred",
      "type": "event"
    },
    {
      "anonymous": false,
      "inputs": [
        {
          "indexed": false,
          "internalType": "string",
          "name": "uid",
          "type": "string"
        },
        {
          "indexed": false,
          "internalType": "address",
          "name": "owner",
          "type": "address"
        }
      ],
      "name": "ResaleCancelled",
      "type": "event"
    },
    {
      "anonymous": false,
      "inputs": [
        {
          "indexed": true,
          "internalType": "address",
          "name": "from",
          "type": "address"
        },
        {
          "indexed": true,
          "internalType": "address",
          "name": "to",
          "type": "address"
        },
        {
          "indexed": true,
          "internalType": "uint256",
          "name": "tokenId",
          "type": "uint256"
        }
      ],
      "name": "Transfer",
      "type": "event"
    },
    {
      "inputs": [
        {
          "internalType": "uint256",
          "name": "",
          "type": "uint256"
        }
      ],
      "name": "allCardUIDs",
      "outputs": [
        {
          "internalType": "string",
          "name": "",
          "type": "string"
        }
      ],
      "stateMutability": "view",
      "type": "function"
    },
    {
      "inputs": [
        {
          "internalType": "address",
          "name": "to",
          "type": "address"
        },
        {
          "internalType": "uint256",
          "name": "tokenId",
          "type": "uint256"
        }
      ],
      "name": "approve",
      "outputs": [],
      "stateMutability": "nonpayable",
      "type": "function"
    },
    {
      "inputs": [
        {
          "internalType": "string",
          "name": "uid",
          "type": "string"
        }
      ],
      "name": "approveTransfer",
      "outputs": [],
      "stateMutability": "nonpayable",
      "type": "function"
    },
    {
      "inputs": [
        {
          "internalType": "address",
          "name": "owner",
          "type": "address"
        }
      ],
      "name": "balanceOf",
      "outputs": [
        {
          "internalType": "uint256",
          "name": "",
          "type": "uint256"
        }
      ],
      "stateMutability": "view",
      "type": "function"
    },
    {
      "inputs": [
        {
          "internalType": "string",
          "name": "uid",
          "type": "string"
        },
        {
          "internalType": "address",
          "name": "recipient",
          "type": "address"
        }
      ],
      "name": "bindUID",
      "outputs": [],
      "stateMutability": "nonpayable",
      "type": "function"
    },
    {
      "inputs": [
        {
          "internalType": "string",
          "name": "uid",
          "type": "string"
        }
      ],
      "name": "bindUID",
      "outputs": [],
      "stateMutability": "nonpayable",
      "type": "function"
    },
    {
      "inputs": [
        {
          "internalType": "string",
          "name": "uid",
          "type": "string"
        }
      ],
      "name": "cancelResale",
      "outputs": [],
      "stateMutability": "nonpayable",
      "type": "function"
    },
    {
      "inputs": [],
      "name": "cardPrice",
      "outputs": [
        {
          "internalType": "uint256",
          "name": "",
          "type": "uint256"
        }
      ],
      "stateMutability": "view",
      "type": "function"
    },
    {
      "inputs": [
        {
          "internalType": "string",
          "name": "",
          "type": "string"
        }
      ],
      "name": "cardUIDUsed",
      "outputs": [
        {
          "internalType": "bool",
          "name": "",
          "type": "bool"
        }
      ],
      "stateMutability": "view",
      "type": "function"
    },
    {
      "inputs": [],
      "name": "defaultCardInfo",
      "outputs": [
        {
          "internalType": "string",
          "name": "idolGroup",
          "type": "string"
        },
        {
          "internalType": "string",
          "name": "member",
          "type": "string"
        },
        {
          "internalType": "string",
          "name": "cardNumber",
          "type": "string"
        },
        {
          "internalType": "uint256",
          "name": "listPrice",
          "type": "uint256"
        },
        {
          "internalType": "string",
          "name": "photoURI",
          "type": "string"
        }
      ],
      "stateMutability": "view",
      "type": "function"
    },
    {
      "inputs": [
        {
          "internalType": "uint256",
          "name": "tokenId",
          "type": "uint256"
        }
      ],
      "name": "getApproved",
      "outputs": [
        {
          "internalType": "address",
          "name": "",
          "type": "address"
        }
      ],
      "stateMutability": "view",
      "type": "function"
    },
    {
      "inputs": [],
      "name": "getAvailableCards",
      "outputs": [
        {
          "components": [
            {
              "internalType": "string",
              "name": "uid",
              "type": "string"
            },
            {
              "internalType": "string",
              "name": "idolGroup",
              "type": "string"
            },
            {
              "internalType": "string",
              "name": "member",
              "type": "string"
            },
            {
              "internalType": "string",
              "name": "cardNumber",
              "type": "string"
            },
            {
              "internalType": "uint256",
              "name": "listPrice",
              "type": "uint256"
            },
            {
              "internalType": "string",
              "name": "photoURI",
              "type": "string"
            },
            {
              "internalType": "bool",
              "name": "isSold",
              "type": "bool"
            }
          ],
          "internalType": "struct CardManager.CardDisplay[]",
          "name": "",
          "type": "tuple[]"
        }
      ],
      "stateMutability": "view",
      "type": "function"
    },
    {
      "inputs": [
        {
          "internalType": "uint256",
          "name": "tokenId",
          "type": "uint256"
        }
      ],
      "name": "getCardInfo",
      "outputs": [
        {
          "internalType": "string",
          "name": "idolGroup",
          "type": "string"
        },
        {
          "internalType": "string",
          "name": "member",
          "type": "string"
        },
        {
          "internalType": "string",
          "name": "cardNumber",
          "type": "string"
        },
        {
          "internalType": "uint256",
          "name": "listPrice",
          "type": "uint256"
        },
        {
          "internalType": "string",
          "name": "photoURI",
          "type": "string"
        }
      ],
      "stateMutability": "view",
      "type": "function"
    },
    {
      "inputs": [],
      "name": "getCardPrice",
      "outputs": [
        {
          "internalType": "uint256",
          "name": "",
          "type": "uint256"
        }
      ],
      "stateMutability": "view",
      "type": "function"
    },
    {
      "inputs": [],
      "name": "getCompanyCards",
      "outputs": [
        {
          "components": [
            {
              "internalType": "string",
              "name": "uid",
              "type": "string"
            },
            {
              "internalType": "string",
              "name": "idolGroup",
              "type": "string"
            },
            {
              "internalType": "string",
              "name": "member",
              "type": "string"
            },
            {
              "internalType": "string",
              "name": "cardNumber",
              "type": "string"
            },
            {
              "internalType": "uint256",
              "name": "listPrice",
              "type": "uint256"
            },
            {
              "internalType": "string",
              "name": "photoURI",
              "type": "string"
            },
            {
              "internalType": "bool",
              "name": "isSold",
              "type": "bool"
            }
          ],
          "internalType": "struct CardManager.CardDisplay[]",
          "name": "",
          "type": "tuple[]"
        }
      ],
      "stateMutability": "view",
      "type": "function"
    },
    {
      "inputs": [
        {
          "internalType": "string",
          "name": "uid",
          "type": "string"
        }
      ],
      "name": "getNFTHolder",
      "outputs": [
        {
          "internalType": "address",
          "name": "",
          "type": "address"
        }
      ],
      "stateMutability": "view",
      "type": "function"
    },
    {
      "inputs": [],
      "name": "getPendingCardRequests",
      "outputs": [
        {
          "components": [
            {
              "internalType": "string",
              "name": "uid",
              "type": "string"
            },
            {
              "internalType": "address",
              "name": "buyer",
              "type": "address"
            },
            {
              "internalType": "uint256",
              "name": "amount",
              "type": "uint256"
            },
            {
              "internalType": "uint256",
              "name": "timestamp",
              "type": "uint256"
            }
          ],
          "internalType": "struct CardManager.PendingRequest[]",
          "name": "",
          "type": "tuple[]"
        }
      ],
      "stateMutability": "view",
      "type": "function"
    },
    {
      "inputs": [],
      "name": "getResaleCards",
      "outputs": [
        {
          "components": [
            {
              "internalType": "string",
              "name": "uid",
              "type": "string"
            },
            {
              "internalType": "string",
              "name": "idolGroup",
              "type": "string"
            },
            {
              "internalType": "string",
              "name": "member",
              "type": "string"
            },
            {
              "internalType": "string",
              "name": "cardNumber",
              "type": "string"
            },
            {
              "internalType": "uint256",
              "name": "listPrice",
              "type": "uint256"
            },
            {
              "internalType": "string",
              "name": "photoURI",
              "type": "string"
            },
            {
              "internalType": "bool",
              "name": "isSold",
              "type": "bool"
            }
          ],
          "internalType": "struct CardManager.CardDisplay[]",
          "name": "",
          "type": "tuple[]"
        }
      ],
      "stateMutability": "view",
      "type": "function"
    },
    {
      "inputs": [
        {
          "internalType": "address",
          "name": "user",
          "type": "address"
        }
      ],
      "name": "getUserCards",
      "outputs": [
        {
          "components": [
            {
              "internalType": "string",
              "name": "uid",
              "type": "string"
            },
            {
              "internalType": "string",
              "name": "idolGroup",
              "type": "string"
            },
            {
              "internalType": "string",
              "name": "member",
              "type": "string"
            },
            {
              "internalType": "string",
              "name": "cardNumber",
              "type": "string"
            },
            {
              "internalType": "uint256",
              "name": "listPrice",
              "type": "uint256"
            },
            {
              "internalType": "string",
              "name": "photoURI",
              "type": "string"
            },
            {
              "internalType": "bool",
              "name": "isSold",
              "type": "bool"
            }
          ],
          "internalType": "struct CardManager.CardDisplay[]",
          "name": "",
          "type": "tuple[]"
        }
      ],
      "stateMutability": "view",
      "type": "function"
    },
    {
      "inputs": [
        {
          "internalType": "address",
          "name": "owner",
          "type": "address"
        },
        {
          "internalType": "address",
          "name": "operator",
          "type": "address"
        }
      ],
      "name": "isApprovedForAll",
      "outputs": [
        {
          "internalType": "bool",
          "name": "",
          "type": "bool"
        }
      ],
      "stateMutability": "view",
      "type": "function"
    },
    {
      "inputs": [
        {
          "internalType": "string",
          "name": "",
          "type": "string"
        }
      ],
      "name": "isResaleListed",
      "outputs": [
        {
          "internalType": "bool",
          "name": "",
          "type": "bool"
        }
      ],
      "stateMutability": "view",
      "type": "function"
    },
    {
      "inputs": [
        {
          "internalType": "string",
          "name": "uid",
          "type": "string"
        },
        {
          "internalType": "uint256",
          "name": "resalePrice",
          "type": "uint256"
        }
      ],
      "name": "listCardForResale",
      "outputs": [],
      "stateMutability": "nonpayable",
      "type": "function"
    },
    {
      "inputs": [],
      "name": "mainContract",
      "outputs": [
        {
          "internalType": "address",
          "name": "",
          "type": "address"
        }
      ],
      "stateMutability": "view",
      "type": "function"
    },
    {
      "inputs": [],
      "name": "name",
      "outputs": [
        {
          "internalType": "string",
          "name": "",
          "type": "string"
        }
      ],
      "stateMutability": "view",
      "type": "function"
    },
    {
      "inputs": [],
      "name": "nextTokenId",
      "outputs": [
        {
          "internalType": "uint256",
          "name": "",
          "type": "uint256"
        }
      ],
      "stateMutability": "view",
      "type": "function"
    },
    {
      "inputs": [],
      "name": "owner",
      "outputs": [
        {
          "internalType": "address",
          "name": "",
          "type": "address"
        }
      ],
      "stateMutability": "view",
      "type": "function"
    },
    {
      "inputs": [
        {
          "internalType": "uint256",
          "name": "tokenId",
          "type": "uint256"
        }
      ],
      "name": "ownerOf",
      "outputs": [
        {
          "internalType": "address",
          "name": "",
          "type": "address"
        }
      ],
      "stateMutability": "view",
      "type": "function"
    },
    {
      "inputs": [
        {
          "internalType": "string",
          "name": "",
          "type": "string"
        }
      ],
      "name": "pendingTransfers",
      "outputs": [
        {
          "internalType": "address",
          "name": "buyer",
          "type": "address"
        },
        {
          "internalType": "uint256",
          "name": "amount",
          "type": "uint256"
        },
        {
          "internalType": "bool",
          "name": "approved",
          "type": "bool"
        }
      ],
      "stateMutability": "view",
      "type": "function"
    },
    {
      "inputs": [
        {
          "internalType": "uint256",
          "name": "",
          "type": "uint256"
        }
      ],
      "name": "phase",
      "outputs": [
        {
          "internalType": "uint8",
          "name": "",
          "type": "uint8"
        }
      ],
      "stateMutability": "view",
      "type": "function"
    },
    {
      "inputs": [
        {
          "internalType": "address",
          "name": "",
          "type": "address"
        }
      ],
      "name": "prepaidAmount",
      "outputs": [
        {
          "internalType": "uint256",
          "name": "",
          "type": "uint256"
        }
      ],
      "stateMutability": "view",
      "type": "function"
    },
    {
      "inputs": [
        {
          "internalType": "string",
          "name": "uid",
          "type": "string"
        },
        {
          "internalType": "address",
          "name": "recipient",
          "type": "address"
        }
      ],
      "name": "purchaseResaleCard",
      "outputs": [],
      "stateMutability": "payable",
      "type": "function"
    },
    {
      "inputs": [
        {
          "internalType": "string",
          "name": "uid",
          "type": "string"
        },
        {
          "internalType": "address",
          "name": "recipient",
          "type": "address"
        }
      ],
      "name": "purchaseSpecificCard",
      "outputs": [
        {
          "internalType": "string",
          "name": "",
          "type": "string"
        }
      ],
      "stateMutability": "payable",
      "type": "function"
    },
    {
      "inputs": [
        {
          "internalType": "string",
          "name": "uid",
          "type": "string"
        }
      ],
      "name": "rejectTransfer",
      "outputs": [],
      "stateMutability": "nonpayable",
      "type": "function"
    },
    {
      "inputs": [],
      "name": "renounceOwnership",
      "outputs": [],
      "stateMutability": "nonpayable",
      "type": "function"
    },
    {
      "inputs": [
        {
          "internalType": "string",
          "name": "",
          "type": "string"
        }
      ],
      "name": "requestTimestamps",
      "outputs": [
        {
          "internalType": "uint256",
          "name": "",
          "type": "uint256"
        }
      ],
      "stateMutability": "view",
      "type": "function"
    },
    {
      "inputs": [
        {
          "internalType": "uint256",
          "name": "",
          "type": "uint256"
        }
      ],
      "name": "resaleCardUIDs",
      "outputs": [
        {
          "internalType": "string",
          "name": "",
          "type": "string"
        }
      ],
      "stateMutability": "view",
      "type": "function"
    },
    {
      "inputs": [
        {
          "internalType": "address",
          "name": "from",
          "type": "address"
        },
        {
          "internalType": "address",
          "name": "to",
          "type": "address"
        },
        {
          "internalType": "uint256",
          "name": "tokenId",
          "type": "uint256"
        }
      ],
      "name": "safeTransferFrom",
      "outputs": [],
      "stateMutability": "nonpayable",
      "type": "function"
    },
    {
      "inputs": [
        {
          "internalType": "address",
          "name": "from",
          "type": "address"
        },
        {
          "internalType": "address",
          "name": "to",
          "type": "address"
        },
        {
          "internalType": "uint256",
          "name": "tokenId",
          "type": "uint256"
        },
        {
          "internalType": "bytes",
          "name": "data",
          "type": "bytes"
        }
      ],
      "name": "safeTransferFrom",
      "outputs": [],
      "stateMutability": "nonpayable",
      "type": "function"
    },
    {
      "inputs": [
        {
          "internalType": "address",
          "name": "operator",
          "type": "address"
        },
        {
          "internalType": "bool",
          "name": "approved",
          "type": "bool"
        }
      ],
      "name": "setApprovalForAll",
      "outputs": [],
      "stateMutability": "nonpayable",
      "type": "function"
    },
    {
      "inputs": [
        {
          "internalType": "uint256",
          "name": "newPrice",
          "type": "uint256"
        },
        {
          "internalType": "string",
          "name": "idolGroup",
          "type": "string"
        },
        {
          "internalType": "string",
          "name": "member",
          "type": "string"
        },
        {
          "internalType": "string",
          "name": "cardNumber",
          "type": "string"
        },
        {
          "internalType": "uint256",
          "name": "listPrice",
          "type": "uint256"
        },
        {
          "internalType": "string",
          "name": "photoURI",
          "type": "string"
        },
        {
          "internalType": "uint256",
          "name": "amount",
          "type": "uint256"
        }
      ],
      "name": "setCardPrice",
      "outputs": [
        {
          "internalType": "string[]",
          "name": "",
          "type": "string[]"
        }
      ],
      "stateMutability": "nonpayable",
      "type": "function"
    },
    {
      "inputs": [
        {
          "internalType": "address",
          "name": "_mainContract",
          "type": "address"
        }
      ],
      "name": "setMainContract",
      "outputs": [],
      "stateMutability": "nonpayable",
      "type": "function"
    },
    {
      "inputs": [
        {
          "internalType": "bytes4",
          "name": "interfaceId",
          "type": "bytes4"
        }
      ],
      "name": "supportsInterface",
      "outputs": [
        {
          "internalType": "bool",
          "name": "",
          "type": "bool"
        }
      ],
      "stateMutability": "view",
      "type": "function"
    },
    {
      "inputs": [],
      "name": "symbol",
      "outputs": [
        {
          "internalType": "string",
          "name": "",
          "type": "string"
        }
      ],
      "stateMutability": "view",
      "type": "function"
    },
    {
      "inputs": [
        {
          "internalType": "uint256",
          "name": "index",
          "type": "uint256"
        }
      ],
      "name": "tokenByIndex",
      "outputs": [
        {
          "internalType": "uint256",
          "name": "",
          "type": "uint256"
        }
      ],
      "stateMutability": "view",
      "type": "function"
    },
    {
      "inputs": [
        {
          "internalType": "uint256",
          "name": "",
          "type": "uint256"
        }
      ],
      "name": "tokenIdToCardInfo",
      "outputs": [
        {
          "internalType": "string",
          "name": "idolGroup",
          "type": "string"
        },
        {
          "internalType": "string",
          "name": "member",
          "type": "string"
        },
        {
          "internalType": "string",
          "name": "cardNumber",
          "type": "string"
        },
        {
          "internalType": "uint256",
          "name": "listPrice",
          "type": "uint256"
        },
        {
          "internalType": "string",
          "name": "photoURI",
          "type": "string"
        }
      ],
      "stateMutability": "view",
      "type": "function"
    },
    {
      "inputs": [
        {
          "internalType": "address",
          "name": "owner",
          "type": "address"
        },
        {
          "internalType": "uint256",
          "name": "index",
          "type": "uint256"
        }
      ],
      "name": "tokenOfOwnerByIndex",
      "outputs": [
        {
          "internalType": "uint256",
          "name": "",
          "type": "uint256"
        }
      ],
      "stateMutability": "view",
      "type": "function"
    },
    {
      "inputs": [
        {
          "internalType": "uint256",
          "name": "tokenId",
          "type": "uint256"
        }
      ],
      "name": "tokenURI",
      "outputs": [
        {
          "internalType": "string",
          "name": "",
          "type": "string"
        }
      ],
      "stateMutability": "view",
      "type": "function"
    },
    {
      "inputs": [],
      "name": "totalSupply",
      "outputs": [
        {
          "internalType": "uint256",
          "name": "",
          "type": "uint256"
        }
      ],
      "stateMutability": "view",
      "type": "function"
    },
    {
      "inputs": [
        {
          "internalType": "address",
          "name": "from",
          "type": "address"
        },
        {
          "internalType": "address",
          "name": "to",
          "type": "address"
        },
        {
          "internalType": "uint256",
          "name": "tokenId",
          "type": "uint256"
        }
      ],
      "name": "transferFrom",
      "outputs": [],
      "stateMutability": "nonpayable",
      "type": "function"
    },
    {
      "inputs": [
        {
          "internalType": "address",
          "name": "newOwner",
          "type": "address"
        }
      ],
      "name": "transferOwnership",
      "outputs": [],
      "stateMutability": "nonpayable",
      "type": "function"
    },
    {
      "inputs": [
        {
          "internalType": "string",
          "name": "",
          "type": "string"
        }
      ],
      "name": "uidToCardInfo",
      "outputs": [
        {
          "internalType": "string",
          "name": "idolGroup",
          "type": "string"
        },
        {
          "internalType": "string",
          "name": "member",
          "type": "string"
        },
        {
          "internalType": "string",
          "name": "cardNumber",
          "type": "string"
        },
        {
          "internalType": "uint256",
          "name": "listPrice",
          "type": "uint256"
        },
        {
          "internalType": "string",
          "name": "photoURI",
          "type": "string"
        }
      ],
      "stateMutability": "view",
      "type": "function"
    },
    {
      "inputs": [
        {
          "internalType": "string",
          "name": "",
          "type": "string"
        }
      ],
      "name": "uidUsed",
      "outputs": [
        {
          "internalType": "bool",
          "name": "",
          "type": "bool"
        }
      ],
      "stateMutability": "view",
      "type": "function"
    }
  ],
  "bytecode": "0x60806040526001600c5534801561001557600080fd5b50604051616227380380616227833981016040819052610034916101a4565b828282808383600061004683826102b8565b50600161005382826102b8565b5050506001600160a01b03811661008457604051631e4fbdf760e01b81526000600482015260240160405180910390fd5b61008d81610099565b50505050505050610376565b600b80546001600160a01b038381166001600160a01b0319831681179093556040519116919082907f8be0079c531659141344cd1fd0a4f28419497f9722a3daafe3b4186f6b6457e090600090a35050565b634e487b7160e01b600052604160045260246000fd5b600082601f83011261011257600080fd5b81516001600160401b0381111561012b5761012b6100eb565b604051601f8201601f19908116603f011681016001600160401b0381118282101715610159576101596100eb565b60405281815283820160200185101561017157600080fd5b60005b8281101561019057602081860181015183830182015201610174565b506000918101602001919091529392505050565b6000806000606084860312156101b957600080fd5b83516001600160401b038111156101cf57600080fd5b6101db86828701610101565b602086015190945090506001600160401b038111156101f957600080fd5b61020586828701610101565b604086015190935090506001600160a01b038116811461022457600080fd5b809150509250925092565b600181811c9082168061024357607f821691505b60208210810361026357634e487b7160e01b600052602260045260246000fd5b50919050565b601f8211156102b357806000526020600020601f840160051c810160208510156102905750805b601f840160051c820191505b818110156102b0576000815560010161029c565b50505b505050565b81516001600160401b038111156102d1576102d16100eb565b6102e5816102df845461022f565b84610269565b6020601f82116001811461031957600083156103015750848201515b600019600385901b1c1916600184901b1784556102b0565b600084815260208120601f198516915b828110156103495787850151825560209485019460019092019101610329565b50848210156103675786840151600019600387901b60f8161c191681555b50505050600190811b01905550565b615ea2806103856000396000f3fe60806040526004361061027f5760003560e01c806388d9f40d11610150578063c58bd087116100bc578063c58bd087146107b3578063c87b56dd146107c8578063d270e7ab146107e8578063d79d63be14610808578063d84223941461081d578063de34bacd14610855578063e0c7d9461461086b578063e7b93d7114610898578063e985e9c5146108d2578063ef8b8d3a146108f2578063efc2f7a614610912578063f2fde38b1461098d578063faba049e146109ad57600080fd5b806388d9f40d146106245780638be4b8dd146106445780638c74063d1461067f5780638da5cb5b1461069f57806395d89b41146106b4578063970129be146106c95780639f5dd78b146106e9578063a216bbfa146106fc578063a22cb4651461071c578063aa20369c1461073c578063abf400291461075e578063b05a8b8814610773578063b88d4fde1461079357600080fd5b80633ded33bc116101ef5780633ded33bc1461048657806342842e0e146104a65780634f6ccce7146104c65780636352211e146104e65780636966e0441461050657806370a082311461053757806370eaa84214610557578063715018a614610577578063753c0eea1461058c57806375794a3c1461059f57806379e4a5b7146105b55780638024f086146105d757806384ae60341461060457600080fd5b806301ffc9a71461028457806301ffd59a146102b957806306fdde03146102db578063081812fc146102fd578063095ea7b31461032a5780630c7629631461034a5780630d8b6fd91461036a5780630e371a751461038a578063135f8aa7146103aa57806318160ddd146103ec57806323b872dd1461040b5780632cbee80a1461042b5780632f745c5914610466575b600080fd5b34801561029057600080fd5b506102a461029f366004615122565b6109c2565b60405190151581526020015b60405180910390f35b3480156102c557600080fd5b506102d96102d43660046151ed565b6109d3565b005b3480156102e757600080fd5b506102f0610b6d565b6040516102b09190615281565b34801561030957600080fd5b5061031d610318366004615294565b610bff565b6040516102b091906152ad565b34801561033657600080fd5b506102d96103453660046152dd565b610c14565b34801561035657600080fd5b506102f0610365366004615294565b610c23565b34801561037657600080fd5b506102d9610385366004615307565b610ccf565b34801561039657600080fd5b506102f06103a5366004615294565b610ef8565b3480156103b657600080fd5b506103da6103c5366004615294565b601d6020526000908152604090205460ff1681565b60405160ff90911681526020016102b0565b3480156103f857600080fd5b506008545b6040519081526020016102b0565b34801561041757600080fd5b506102d961042636600461533b565b610f08565b34801561043757600080fd5b506102a4610446366004615307565b8051602081830181018051600e8252928201919093012091525460ff1681565b34801561047257600080fd5b506103fd6104813660046152dd565b610f7f565b34801561049257600080fd5b506102d96104a1366004615378565b610fd6565b3480156104b257600080fd5b506102d96104c136600461533b565b611045565b3480156104d257600080fd5b506103fd6104e1366004615294565b611065565b3480156104f257600080fd5b5061031d610501366004615294565b6110b9565b34801561051257600080fd5b50610526610521366004615294565b6110c4565b6040516102b0959493929190615393565b34801561054357600080fd5b506103fd610552366004615378565b611312565b34801561056357600080fd5b506102d96105723660046153f2565b61135a565b34801561058357600080fd5b506102d96114ad565b6102d961059a3660046153f2565b6114c1565b3480156105ab57600080fd5b506103fd600c5481565b3480156105c157600080fd5b506105ca6117c6565b6040516102b0919061543f565b3480156105e357600080fd5b506103fd6105f2366004615378565b601c6020526000908152604090205481565b34801561061057600080fd5b5061031d61061f366004615307565b611d06565b34801561063057600080fd5b506105ca61063f366004615378565b611d81565b34801561065057600080fd5b506102a461065f366004615307565b805160208183018101805160178252928201919093012091525460ff1681565b34801561068b57600080fd5b5061052661069a366004615307565b612189565b3480156106ab57600080fd5b5061031d6121af565b3480156106c057600080fd5b506102f06121be565b3480156106d557600080fd5b506105266106e4366004615294565b6121cd565b6102f06106f73660046153f2565b612473565b34801561070857600080fd5b506102d9610717366004615307565b612a0b565b34801561072857600080fd5b506102d9610737366004615530565b612e47565b34801561074857600080fd5b50610751612e52565b6040516102b0919061556c565b34801561076a57600080fd5b506105ca613248565b34801561077f57600080fd5b506102d961078e366004615307565b613680565b34801561079f57600080fd5b506102d96107ae3660046155f8565b6137c9565b3480156107bf57600080fd5b506105ca6137e1565b3480156107d457600080fd5b506102f06107e3366004615294565b613c81565b3480156107f457600080fd5b50600f5461031d906001600160a01b031681565b34801561081457600080fd5b50600d546103fd565b34801561082957600080fd5b506103fd610838366004615307565b8051602081830181018051601a8252928201919093012091525481565b34801561086157600080fd5b506103fd600d5481565b34801561087757600080fd5b5061088b610886366004615673565b613c8c565b6040516102b0919061574f565b3480156108a457600080fd5b506102a46108b3366004615307565b8051602081830181018051828252928201919093012091525460ff1681565b3480156108de57600080fd5b506102a46108ed3660046157a8565b61407a565b3480156108fe57600080fd5b506102d961090d366004615307565b6140a8565b34801561091e57600080fd5b5061096661092d366004615307565b80516020818301810180516019825292820191909301209152805460018201546002909201546001600160a01b03909116919060ff1683565b604080516001600160a01b03909416845260208401929092521515908201526060016102b0565b34801561099957600080fd5b506102d96109a8366004615378565b614223565b3480156109b957600080fd5b50610526614261565b60006109cd82614270565b92915050565b6020826040516109e391906157d2565b9081526040519081900360200190205460ff1615610a395760405162461bcd60e51b815260206004820152600e60248201526d105b1c9958591e481b1a5cdd195960921b60448201526064015b60405180910390fd5b6000601883604051610a4b91906157d2565b908152602001604051809103902090506000816000018054610a6c906157ee565b905011610aaf5760405162461bcd60e51b81526020600482015260116024820152704361726420696e666f206d697373696e6760781b6044820152606401610a30565b6000816003015411610af25760405162461bcd60e51b815260206004820152600c60248201526b125b9d985b1a590818d85c9960a21b6044820152606401610a30565b60038101829055601f80546001810182556000919091527fa03837a25210ee280c2113ff4b77ca23440b19d4866cca721c801278fd08d80701610b358482615884565b506001602084604051610b4891906157d2565b908152604051908190036020019020805491151560ff19909216919091179055505050565b606060008054610b7c906157ee565b80601f0160208091040260200160405190810160405280929190818152602001828054610ba8906157ee565b8015610bf55780601f10610bca57610100808354040283529160200191610bf5565b820191906000526020600020905b815481529060010190602001808311610bd857829003601f168201915b5050505050905090565b6000610c0a82614295565b506109cd826142cd565b610c1f8282336142e8565b5050565b601f8181548110610c3357600080fd5b906000526020600020016000915090508054610c4e906157ee565b80601f0160208091040260200160405190810160405280929190818152602001828054610c7a906157ee565b8015610cc75780601f10610c9c57610100808354040283529160200191610cc7565b820191906000526020600020905b815481529060010190602001808311610caa57829003601f168201915b505050505081565b610cd76121af565b6001600160a01b0316336001600160a01b03161480610d005750600f546001600160a01b031633145b610d1c5760405162461bcd60e51b8152600401610a309061593c565b60006001600160a01b0316601982604051610d3791906157d2565b908152604051908190036020019020546001600160a01b031603610d915760405162461bcd60e51b81526020600482015260116024820152704e6f20726571756573742065786973747360781b6044820152606401610a30565b601981604051610da191906157d2565b9081526040519081900360200190206002015460ff1615610dd45760405162461bcd60e51b8152600401610a3090615971565b6000601982604051610de691906157d2565b908152604051908190036020018120546001600160a01b03169150600090601990610e129085906157d2565b9081526040519081900360200181206001015491506001600160a01b0383169082156108fc029083906000818181858888f19350505050158015610e5a573d6000803e3d6000fd5b50601983604051610e6b91906157d2565b90815260405190819003602001812080546001600160a01b031916815560006001820155600201805460ff19169055601a90610ea89085906157d2565b9081526020016040518091039020600090557f5fe4af08478fabbfd212e314c4b43b87451ee940f4aedacb5504b7193ef4deb98383604051610eeb92919061599b565b60405180910390a1505050565b601e8181548110610c3357600080fd5b6001600160a01b038216610f32576000604051633250574960e11b8152600401610a3091906152ad565b6000610f3f8383336142f5565b9050836001600160a01b0316816001600160a01b031614610f79578382826040516364283d7b60e01b8152600401610a30939291906159c5565b50505050565b6000610f8a83611312565b8210610fad57828260405163295f44f760e21b8152600401610a309291906159e8565b506001600160a01b03919091166000908152600660209081526040808320938352929052205490565b610fde6121af565b6001600160a01b0316336001600160a01b031614806110075750600f546001600160a01b031633145b6110235760405162461bcd60e51b8152600401610a309061593c565b600f80546001600160a01b0319166001600160a01b0392909216919091179055565b611060838383604051806020016040528060008152506137c9565b505050565b600061107060085490565b82106110945760008260405163295f44f760e21b8152600401610a309291906159e8565b600882815481106110a7576110a7615a01565b90600052602060002001549050919050565b60006109cd82614295565b601b602052600090815260409020805481906110df906157ee565b80601f016020809104026020016040519081016040528092919081815260200182805461110b906157ee565b80156111585780601f1061112d57610100808354040283529160200191611158565b820191906000526020600020905b81548152906001019060200180831161113b57829003601f168201915b50505050509080600101805461116d906157ee565b80601f0160208091040260200160405190810160405280929190818152602001828054611199906157ee565b80156111e65780601f106111bb576101008083540402835291602001916111e6565b820191906000526020600020905b8154815290600101906020018083116111c957829003601f168201915b5050505050908060020180546111fb906157ee565b80601f0160208091040260200160405190810160405280929190818152602001828054611227906157ee565b80156112745780601f1061124957610100808354040283529160200191611274565b820191906000526020600020905b81548152906001019060200180831161125757829003601f168201915b50505050509080600301549080600401805461128f906157ee565b80601f01602080910402602001604051908101604052809291908181526020018280546112bb906157ee565b80156113085780601f106112dd57610100808354040283529160200191611308565b820191906000526020600020905b8154815290600101906020018083116112eb57829003601f168201915b5050505050905085565b60006001600160a01b03821661133e5760006040516322718ad960e21b8152600401610a3091906152ad565b506001600160a01b031660009081526003602052604090205490565b600e8260405161136a91906157d2565b9081526040519081900360200190205460ff161561139a5760405162461bcd60e51b8152600401610a3090615a17565b60006015836040516113ac91906157d2565b9081526020016040518091039020549050806000036113dd5760405162461bcd60e51b8152600401610a3090615a42565b816001600160a01b03166113f0826110b9565b6001600160a01b0316146114165760405162461bcd60e51b8152600401610a3090615a70565b6000818152601d602052604090205460ff166002146114475760405162461bcd60e51b8152600401610a3090615a99565b6001600e8460405161145991906157d2565b9081526040805160209281900383019020805460ff191693151593909317909255600083815260169091522061148f8482615884565b506000908152601d60205260409020805460ff191660031790555050565b6114b561430a565b6114bf600061433c565b565b6020826040516114d191906157d2565b9081526040519081900360200190205460ff166115265760405162461bcd60e51b815260206004820152601360248201527243617264206e6f7420666f7220726573616c6560681b6044820152606401610a30565b600060158360405161153891906157d2565b90815260200160405180910390205490506000611554826110b9565b9050600060188560405161156891906157d2565b90815260200160405180910390206003015490508034146115bf5760405162461bcd60e51b8152602060048201526011602482015270125b98dbdc9c9958dd081c185e5b595b9d607a1b6044820152606401610a30565b6115ca82858561438e565b6040516001600160a01b0383169082156108fc029083906000818181858888f19350505050158015611600573d6000803e3d6000fd5b50600060208660405161161391906157d2565b908152604051908190036020019020805491151560ff1990921691909117905560005b601f5481101561173f578560405160200161165191906157d2565b60405160208183030381529060405280519060200120601f828154811061167a5761167a615a01565b906000526020600020016040516020016116949190615ace565b604051602081830303815290604052805190602001200361173757601f80546116bf90600190615b59565b815481106116cf576116cf615a01565b90600052602060002001601f82815481106116ec576116ec615a01565b9060005260206000200190816117029190615b6c565b50601f80548061171457611714615c33565b600190038181906000526020600020016000611730919061507a565b905561173f565b600101611636565b50836001600160a01b03167fda86b4ea65a3f8e18bfcfeff39efd828bbd7f70268fe1cf30a5f99089a742da3828760405161177b929190615c49565b60405180910390a28260158660405161179491906157d2565b90815260408051602092819003830190209290925560008581526016909152206117be8682615884565b505050505050565b60606000805b601e548110156118c3576000601e82815481106117eb576117eb615a01565b906000526020600020018054611800906157ee565b80601f016020809104026020016040519081016040528092919081815260200182805461182c906157ee565b80156118795780601f1061184e57610100808354040283529160200191611879565b820191906000526020600020905b81548152906001019060200180831161185c57829003601f168201915b50505050509050600060158260405161189291906157d2565b9081526020016040518091039020549050806000036118b957836118b581615c62565b9450505b50506001016117cc565b506000816001600160401b038111156118de576118de61513f565b60405190808252806020026020018201604052801561191757816020015b6119046150b4565b8152602001906001900390816118fc5790505b5090506000805b601e54811015611cfd576000601e828154811061193d5761193d615a01565b906000526020600020018054611952906157ee565b80601f016020809104026020016040519081016040528092919081815260200182805461197e906157ee565b80156119cb5780601f106119a0576101008083540402835291602001916119cb565b820191906000526020600020905b8154815290600101906020018083116119ae57829003601f168201915b5050505050905060006015826040516119e491906157d2565b908152602001604051809103902054905080600003611cf3576000601883604051611a0f91906157d2565b90815260200160405180910390206040518060a0016040529081600082018054611a38906157ee565b80601f0160208091040260200160405190810160405280929190818152602001828054611a64906157ee565b8015611ab15780601f10611a8657610100808354040283529160200191611ab1565b820191906000526020600020905b815481529060010190602001808311611a9457829003601f168201915b50505050508152602001600182018054611aca906157ee565b80601f0160208091040260200160405190810160405280929190818152602001828054611af6906157ee565b8015611b435780601f10611b1857610100808354040283529160200191611b43565b820191906000526020600020905b815481529060010190602001808311611b2657829003601f168201915b50505050508152602001600282018054611b5c906157ee565b80601f0160208091040260200160405190810160405280929190818152602001828054611b88906157ee565b8015611bd55780601f10611baa57610100808354040283529160200191611bd5565b820191906000526020600020905b815481529060010190602001808311611bb857829003601f168201915b5050505050815260200160038201548152602001600482018054611bf8906157ee565b80601f0160208091040260200160405190810160405280929190818152602001828054611c24906157ee565b8015611c715780601f10611c4657610100808354040283529160200191611c71565b820191906000526020600020905b815481529060010190602001808311611c5457829003601f168201915b50505050508152505090506040518060e00160405280848152602001826000015181526020018260200151815260200182604001518152602001826060015181526020018260800151815260200160001515815250868681518110611cd857611cd8615a01565b60200260200101819052508480611cee90615c62565b955050505b505060010161191e565b50909392505050565b600080601583604051611d1991906157d2565b908152602001604051809103902054905080600003611d715760405162461bcd60e51b8152602060048201526014602482015273151bdad95b88191bd95cc81b9bdd08195e1a5cdd60621b6044820152606401610a30565b611d7a816110b9565b9392505050565b60606000611d8e83611312565b90506000816001600160401b03811115611daa57611daa61513f565b604051908082528060200260200182016040528015611de357816020015b611dd06150b4565b815260200190600190039081611dc85790505b50905060005b82811015612181576000611dfd8683610f7f565b600081815260166020526040812080549293509091611e1b906157ee565b80601f0160208091040260200160405190810160405280929190818152602001828054611e47906157ee565b8015611e945780601f10611e6957610100808354040283529160200191611e94565b820191906000526020600020905b815481529060010190602001808311611e7757829003601f168201915b505050505090506000601b60008481526020019081526020016000206040518060a0016040529081600082018054611ecb906157ee565b80601f0160208091040260200160405190810160405280929190818152602001828054611ef7906157ee565b8015611f445780601f10611f1957610100808354040283529160200191611f44565b820191906000526020600020905b815481529060010190602001808311611f2757829003601f168201915b50505050508152602001600182018054611f5d906157ee565b80601f0160208091040260200160405190810160405280929190818152602001828054611f89906157ee565b8015611fd65780601f10611fab57610100808354040283529160200191611fd6565b820191906000526020600020905b815481529060010190602001808311611fb957829003601f168201915b50505050508152602001600282018054611fef906157ee565b80601f016020809104026020016040519081016040528092919081815260200182805461201b906157ee565b80156120685780601f1061203d57610100808354040283529160200191612068565b820191906000526020600020905b81548152906001019060200180831161204b57829003601f168201915b505050505081526020016003820154815260200160048201805461208b906157ee565b80601f01602080910402602001604051908101604052809291908181526020018280546120b7906157ee565b80156121045780601f106120d957610100808354040283529160200191612104565b820191906000526020600020905b8154815290600101906020018083116120e757829003601f168201915b50505050508152505090506040518060e0016040528083815260200182600001518152602001826020015181526020018260400151815260200182606001518152602001826080015181526020016001151581525085858151811061216b5761216b615a01565b6020908102919091010152505050600101611de9565b509392505050565b80516020818301810180516018825292820191909301209152805481906110df906157ee565b600b546001600160a01b031690565b606060018054610b7c906157ee565b6060806060600060606000601b60008881526020019081526020016000206040518060a0016040529081600082018054612206906157ee565b80601f0160208091040260200160405190810160405280929190818152602001828054612232906157ee565b801561227f5780601f106122545761010080835404028352916020019161227f565b820191906000526020600020905b81548152906001019060200180831161226257829003601f168201915b50505050508152602001600182018054612298906157ee565b80601f01602080910402602001604051908101604052809291908181526020018280546122c4906157ee565b80156123115780601f106122e657610100808354040283529160200191612311565b820191906000526020600020905b8154815290600101906020018083116122f457829003601f168201915b5050505050815260200160028201805461232a906157ee565b80601f0160208091040260200160405190810160405280929190818152602001828054612356906157ee565b80156123a35780601f10612378576101008083540402835291602001916123a3565b820191906000526020600020905b81548152906001019060200180831161238657829003601f168201915b50505050508152602001600382015481526020016004820180546123c6906157ee565b80601f01602080910402602001604051908101604052809291908181526020018280546123f2906157ee565b801561243f5780601f106124145761010080835404028352916020019161243f565b820191906000526020600020905b81548152906001019060200180831161242257829003601f168201915b5050509190925250508151602083015160408401516060850151608090950151929c919b5099509297509550909350505050565b6060600e8360405161248591906157d2565b9081526040519081900360200190205460ff16156124d95760405162461bcd60e51b815260206004820152601160248201527010d85c9908185b1c9958591e481cdbdb19607a1b6044820152606401610a30565b6017836040516124e991906157d2565b9081526040519081900360200190205460ff1661253e5760405162461bcd60e51b815260206004820152601360248201527210d85c9908191bd95cc81b9bdd08195e1a5cdd606a1b6044820152606401610a30565b600060188460405161255091906157d2565b90815260200160405180910390206040518060a0016040529081600082018054612579906157ee565b80601f01602080910402602001604051908101604052809291908181526020018280546125a5906157ee565b80156125f25780601f106125c7576101008083540402835291602001916125f2565b820191906000526020600020905b8154815290600101906020018083116125d557829003601f168201915b5050505050815260200160018201805461260b906157ee565b80601f0160208091040260200160405190810160405280929190818152602001828054612637906157ee565b80156126845780601f1061265957610100808354040283529160200191612684565b820191906000526020600020905b81548152906001019060200180831161266757829003601f168201915b5050505050815260200160028201805461269d906157ee565b80601f01602080910402602001604051908101604052809291908181526020018280546126c9906157ee565b80156127165780601f106126eb57610100808354040283529160200191612716565b820191906000526020600020905b8154815290600101906020018083116126f957829003601f168201915b5050505050815260200160038201548152602001600482018054612739906157ee565b80601f0160208091040260200160405190810160405280929190818152602001828054612765906157ee565b80156127b25780601f10612787576101008083540402835291602001916127b2565b820191906000526020600020905b81548152906001019060200180831161279557829003601f168201915b50505050508152505090508060600151341461280b5760405162461bcd60e51b8152602060048201526018602482015277125b98dbdc9c9958dd081c185e5b595b9d08185b5bdd5b9d60421b6044820152606401610a30565b600c54612818848261442a565b6080820151511561283157612831818360800151614444565b6000818152601b60205260409020825183919081906128509082615884565b50602082015160018201906128659082615884565b506040820151600282019061287a9082615884565b5060608201516003820155608082015160048201906128999082615884565b50905050806015866040516128ae91906157d2565b90815260408051602092819003830190209290925560008381526016909152206128d88682615884565b506000818152601d602052604090819020805460ff1916600317905551600190600e906129069088906157d2565b908152604051908190036020019020805491151560ff19909216919091179055600c805490600061293683615c62565b91905055506129436121af565b6001600160a01b03166108fc349081150290604051600060405180830381858888f1935050505015801561297b573d6000803e3d6000fd5b50836001600160a01b03167fda86b4ea65a3f8e18bfcfeff39efd828bbd7f70268fe1cf30a5f99089a742da334876040516129b7929190615c49565b60405180910390a2836001600160a01b03167f54d172fe6315e5309a4aefc43c3a454ff07acf7efe6302f59f347f743a0a90e086836040516129fa929190615c7b565b60405180910390a250929392505050565b612a136121af565b6001600160a01b0316336001600160a01b03161480612a3c5750600f546001600160a01b031633145b612a585760405162461bcd60e51b8152600401610a309061593c565b600d54601982604051612a6b91906157d2565b90815260200160405180910390206001015414612ac15760405162461bcd60e51b815260206004820152601460248201527314185e5b595b9d081b9bdd081c9958d95a5d995960621b6044820152606401610a30565b60006001600160a01b0316601982604051612adc91906157d2565b908152604051908190036020019020546001600160a01b031603612b2f5760405162461bcd60e51b815260206004820152600a602482015269139bc81c995c5d595cdd60b21b6044820152606401610a30565b601981604051612b3f91906157d2565b9081526040519081900360200190206002015460ff1615612b725760405162461bcd60e51b8152600401610a3090615971565b600e81604051612b8291906157d2565b9081526040519081900360200190205460ff1615612bb25760405162461bcd60e51b8152600401610a3090615a17565b6000601982604051612bc491906157d2565b90815260405190819003602001902054600c546001600160a01b039091169150612bee828261442a565b600060106004018054612c00906157ee565b90501115612c9f57612c9f8160106004018054612c1c906157ee565b80601f0160208091040260200160405190810160405280929190818152602001828054612c48906157ee565b8015612c955780601f10612c6a57610100808354040283529160200191612c95565b820191906000526020600020905b815481529060010190602001808311612c7857829003601f168201915b5050505050614444565b6000818152601b6020526040902060109080612cbb8382615b6c565b50600181810190612cce90840182615b6c565b50600281810190612ce190840182615b6c565b506003820154816003015560048201816004019081612d009190615b6c565b509050506001600e84604051612d1691906157d2565b908152604051908190036020018120805492151560ff19909316929092179091558190601590612d479086906157d2565b9081526040805160209281900383019020929092556000838152601690915220612d718482615884565b50600c8054906000612d8283615c62565b9190505550612d8f6121af565b6001600160a01b03166108fc600d549081150290604051600060405180830381858888f19350505050158015612dc9573d6000803e3d6000fd5b506001601984604051612ddc91906157d2565b908152604051908190036020018120600201805492151560ff19909316929092179091556001600160a01b038316907f54d172fe6315e5309a4aefc43c3a454ff07acf7efe6302f59f347f743a0a90e090612e3a9086908590615c7b565b60405180910390a2505050565b610c1f338383614494565b60606000805b601e54811015612fb9576000601e8281548110612e7757612e77615a01565b906000526020600020018054612e8c906157ee565b80601f0160208091040260200160405190810160405280929190818152602001828054612eb8906157ee565b8015612f055780601f10612eda57610100808354040283529160200191612f05565b820191906000526020600020905b815481529060010190602001808311612ee857829003601f168201915b5050505050905060006001600160a01b0316601982604051612f2791906157d2565b908152604051908190036020019020546001600160a01b031614801590612f715750601981604051612f5991906157d2565b9081526040519081900360200190206002015460ff16155b8015612f9d5750600e81604051612f8891906157d2565b9081526040519081900360200190205460ff16155b15612fb05782612fac81615c62565b9350505b50600101612e58565b506000816001600160401b03811115612fd457612fd461513f565b60405190808252806020026020018201604052801561303957816020015b61302660405180608001604052806060815260200160006001600160a01b0316815260200160008152602001600081525090565b815260200190600190039081612ff25790505b5090506000805b601e54811015611cfd576000601e828154811061305f5761305f615a01565b906000526020600020018054613074906157ee565b80601f01602080910402602001604051908101604052809291908181526020018280546130a0906157ee565b80156130ed5780601f106130c2576101008083540402835291602001916130ed565b820191906000526020600020905b8154815290600101906020018083116130d057829003601f168201915b5050505050905060006001600160a01b031660198260405161310f91906157d2565b908152604051908190036020019020546001600160a01b031614801590613159575060198160405161314191906157d2565b9081526040519081900360200190206002015460ff16155b80156131855750600e8160405161317091906157d2565b9081526040519081900360200190205460ff16155b1561323f5760405180608001604052808281526020016019836040516131ab91906157d2565b9081526040805160209281900383019020546001600160a01b03168352519101906019906131da9085906157d2565b9081526020016040518091039020600101548152602001601a8360405161320191906157d2565b90815260200160405180910390205481525084848151811061322557613225615a01565b6020026020010181905250828061323b90615c62565b9350505b50600101613040565b601e546060906000816001600160401b038111156132685761326861513f565b6040519080825280602002602001820160405280156132a157816020015b61328e6150b4565b8152602001906001900390816132865790505b50905060005b82811015613679576000601e82815481106132c4576132c4615a01565b9060005260206000200180546132d9906157ee565b80601f0160208091040260200160405190810160405280929190818152602001828054613305906157ee565b80156133525780601f1061332757610100808354040283529160200191613352565b820191906000526020600020905b81548152906001019060200180831161333557829003601f168201915b50505050509050600060188260405161336b91906157d2565b90815260200160405180910390206040518060a0016040529081600082018054613394906157ee565b80601f01602080910402602001604051908101604052809291908181526020018280546133c0906157ee565b801561340d5780601f106133e25761010080835404028352916020019161340d565b820191906000526020600020905b8154815290600101906020018083116133f057829003601f168201915b50505050508152602001600182018054613426906157ee565b80601f0160208091040260200160405190810160405280929190818152602001828054613452906157ee565b801561349f5780601f106134745761010080835404028352916020019161349f565b820191906000526020600020905b81548152906001019060200180831161348257829003601f168201915b505050505081526020016002820180546134b8906157ee565b80601f01602080910402602001604051908101604052809291908181526020018280546134e4906157ee565b80156135315780601f1061350657610100808354040283529160200191613531565b820191906000526020600020905b81548152906001019060200180831161351457829003601f168201915b5050505050815260200160038201548152602001600482018054613554906157ee565b80601f0160208091040260200160405190810160405280929190818152602001828054613580906157ee565b80156135cd5780601f106135a2576101008083540402835291602001916135cd565b820191906000526020600020905b8154815290600101906020018083116135b057829003601f168201915b50505050508152505090506000600e836040516135ea91906157d2565b908152602001604051809103902060009054906101000a900460ff1690506040518060e00160405280848152602001836000015181526020018360200151815260200183604001518152602001836060015181526020018360800151815260200182151581525085858151811061366357613663615a01565b60209081029190910101525050506001016132a7565b5092915050565b600e8160405161369091906157d2565b9081526040519081900360200190205460ff16156136c05760405162461bcd60e51b8152600401610a3090615a17565b60006015826040516136d291906157d2565b9081526020016040518091039020549050806000036137035760405162461bcd60e51b8152600401610a3090615a42565b3361370d826110b9565b6001600160a01b0316146137335760405162461bcd60e51b8152600401610a3090615a70565b6000818152601d602052604090205460ff166002146137645760405162461bcd60e51b8152600401610a3090615a99565b6001600e8360405161377691906157d2565b9081526040805160209281900383019020805460ff19169315159390931790925560008381526016909152206137ac8382615884565b506000908152601d60205260409020805460ff1916600317905550565b6137d4848484610f08565b610f79338585858561452a565b60606000805b601f5481101561384b576020601f828154811061380657613806615a01565b9060005260206000200160405161381d9190615ace565b9081526040519081900360200190205460ff1615613843578161383f81615c62565b9250505b6001016137e7565b506000816001600160401b038111156138665761386661513f565b60405190808252806020026020018201604052801561389f57816020015b61388c6150b4565b8152602001906001900390816138845790505b5090506000805b601f54811015611cfd576000601f82815481106138c5576138c5615a01565b9060005260206000200180546138da906157ee565b80601f0160208091040260200160405190810160405280929190818152602001828054613906906157ee565b80156139535780601f1061392857610100808354040283529160200191613953565b820191906000526020600020905b81548152906001019060200180831161393657829003601f168201915b5050505050905060208160405161396a91906157d2565b9081526040519081900360200190205460ff1615613c7857600060188260405161399491906157d2565b90815260200160405180910390206040518060a00160405290816000820180546139bd906157ee565b80601f01602080910402602001604051908101604052809291908181526020018280546139e9906157ee565b8015613a365780601f10613a0b57610100808354040283529160200191613a36565b820191906000526020600020905b815481529060010190602001808311613a1957829003601f168201915b50505050508152602001600182018054613a4f906157ee565b80601f0160208091040260200160405190810160405280929190818152602001828054613a7b906157ee565b8015613ac85780601f10613a9d57610100808354040283529160200191613ac8565b820191906000526020600020905b815481529060010190602001808311613aab57829003601f168201915b50505050508152602001600282018054613ae1906157ee565b80601f0160208091040260200160405190810160405280929190818152602001828054613b0d906157ee565b8015613b5a5780601f10613b2f57610100808354040283529160200191613b5a565b820191906000526020600020905b815481529060010190602001808311613b3d57829003601f168201915b5050505050815260200160038201548152602001600482018054613b7d906157ee565b80601f0160208091040260200160405190810160405280929190818152602001828054613ba9906157ee565b8015613bf65780601f10613bcb57610100808354040283529160200191613bf6565b820191906000526020600020905b815481529060010190602001808311613bd957829003601f168201915b50505050508152505090506040518060e00160405280838152602001826000015181526020018260200151815260200182604001518152602001826060015181526020018260800151815260200160001515815250858581518110613c5d57613c5d615a01565b60200260200101819052508380613c7390615c62565b945050505b506001016138a6565b60606109cd82614641565b6060613c966121af565b6001600160a01b0316336001600160a01b03161480613cbf5750600f546001600160a01b031633145b613cdb5760405162461bcd60e51b8152600401610a309061593c565b60008211613d2b5760405162461bcd60e51b815260206004820152601d60248201527f416d6f756e74206d7573742062652067726561746572207468616e20300000006044820152606401610a30565b600d889055604051600090613d50908990899089908990899042904390602001615c9d565b6040516020818303038152906040528051906020012090506000613d738261474a565b90506000846001600160401b03811115613d8f57613d8f61513f565b604051908082528060200260200182016040528015613dc257816020015b6060815260200190600190039081613dad5790505b50905060005b85811015613fe957600083613de6613de1846001615d09565b614898565b604051602001613df7929190615d1c565b6040516020818303038152906040529050601781604051613e1891906157d2565b9081526040519081900360200190205460ff1615613e6b5760405162461bcd60e51b815260206004820152601060248201526f15525108185b1c9958591e481d5cd95960821b6044820152606401610a30565b60006040518060a001604052808e81526020018d81526020018c81526020018b81526020018a815250905080601883604051613ea791906157d2565b90815260405190819003602001902081518190613ec49082615884565b5060208201516001820190613ed99082615884565b5060408201516002820190613eee9082615884565b506060820151600382015560808201516004820190613f0d9082615884565b509050506001601783604051613f2391906157d2565b908152604051908190036020019020805491151560ff19909216919091179055601e80546001810182556000919091527f50bb669a95c7b50b7e8a6f09454034b2b14cf2b85c730dca9a539ca82cb6e35001613f7f8382615884565b5081848481518110613f9357613f93615a01565b60200260200101819052507f863265c9074b70d6481f0c43fbe4a6062a04a7f5fe540f95f15e0dd2815e1b48828e8e8e8e8e604051613fd796959493929190615d58565b60405180910390a15050600101613dc8565b506040805160a0810182528b8152602081018b9052908101899052606081018890526080810187905260108061401f8d82615884565b50602082015160018201906140349082615884565b50604082015160028201906140499082615884565b5060608201516003820155608082015160048201906140689082615884565b50919c9b505050505050505050505050565b6001600160a01b03918216600090815260056020908152604080832093909416825291909152205460ff1690565b60006020826040516140ba91906157d2565b908152604051908190036020019020805491151560ff1990921691909117905560005b601f548110156141e657816040516020016140f891906157d2565b60405160208183030381529060405280519060200120601f828154811061412157614121615a01565b9060005260206000200160405160200161413b9190615ace565b60405160208183030381529060405280519060200120036141de57601f805461416690600190615b59565b8154811061417657614176615a01565b90600052602060002001601f828154811061419357614193615a01565b9060005260206000200190816141a99190615b6c565b50601f8054806141bb576141bb615c33565b6001900381819060005260206000200160006141d7919061507a565b90556141e6565b6001016140dd565b507f0f406750a859d92def4bdf38754f54d3741a385d535b4cda450e04ac3f319fd8813360405161421892919061599b565b60405180910390a150565b61422b61430a565b6001600160a01b038116614255576000604051631e4fbdf760e01b8152600401610a3091906152ad565b61425e8161433c565b50565b6010805481906110df906157ee565b60006001600160e01b03198216632483248360e11b14806109cd57506109cd8261492a565b6000806142a18361494f565b90506001600160a01b0381166109cd57604051637e27328960e01b815260048101849052602401610a30565b6000908152600460205260409020546001600160a01b031690565b611060838383600161496a565b6000614302848484614a67565b949350505050565b336143136121af565b6001600160a01b0316146114bf573360405163118cdaa760e01b8152600401610a3091906152ad565b600b80546001600160a01b038381166001600160a01b0319831681179093556040519116919082907f8be0079c531659141344cd1fd0a4f28419497f9722a3daafe3b4186f6b6457e090600090a35050565b6001600160a01b0382166143b8576000604051633250574960e11b8152600401610a3091906152ad565b60006143c6838360006142f5565b90506001600160a01b0381166143f257604051637e27328960e01b815260048101839052602401610a30565b836001600160a01b0316816001600160a01b031614610f79578382826040516364283d7b60e01b8152600401610a30939291906159c5565b610c1f828260405180602001604052806000815250614b34565b6000828152600a6020526040902061445c8282615884565b506040518281527ff8e1a15aba9398e019f0b49df1a4fde98ee17ae345cb5f6b5e2c27f5033e8ce79060200160405180910390a15050565b6001600160a01b0382166144bd5781604051630b61174360e31b8152600401610a3091906152ad565b6001600160a01b03838116600081815260056020908152604080832094871680845294825291829020805460ff191686151590811790915591519182527f17307eab39ab6107e8899845ad3d59bd9653f200f220920489ca2b5937696c31910160405180910390a3505050565b6001600160a01b0383163b1561463a57604051630a85bd0160e11b81526001600160a01b0384169063150b7a029061456c908890889087908790600401615dcc565b6020604051808303816000875af19250505080156145a7575060408051601f3d908101601f191682019092526145a491810190615e09565b60015b614607573d8080156145d5576040519150601f19603f3d011682016040523d82523d6000602084013e6145da565b606091505b5080516000036145ff5783604051633250574960e11b8152600401610a3091906152ad565b805181602001fd5b6001600160e01b03198116630a85bd0160e11b146117be5783604051633250574960e11b8152600401610a3091906152ad565b5050505050565b606061464c82614295565b506000828152600a602052604081208054614666906157ee565b80601f0160208091040260200160405190810160405280929190818152602001828054614692906157ee565b80156146df5780601f106146b4576101008083540402835291602001916146df565b820191906000526020600020905b8154815290600101906020018083116146c257829003601f168201915b5050505050905060006146fd60408051602081019091526000815290565b9050805160000361470f575092915050565b815115614741578082604051602001614729929190615e26565b60405160208183030381529060405292505050919050565b61430284614b4c565b604080518082018252601081526f181899199a1a9b1b9c1cb0b131b232b360811b6020820152815182815260608181018452926000919060208201818036833701905050905060005b6020811015612181578260048683602081106147b1576147b1615a01565b1a60f81b6001600160f81b031916901c60f81c60ff16815181106147d7576147d7615a01565b01602001516001600160f81b031916826147f2836002615e55565b8151811061480257614802615a01565b60200101906001600160f81b031916908160001a9053508285826020811061482c5761482c615a01565b825191901a600f1690811061484357614843615a01565b01602001516001600160f81b0319168261485e836002615e55565b614869906001615d09565b8151811061487957614879615a01565b60200101906001600160f81b031916908160001a905350600101614793565b606060006148a583614bc0565b60010190506000816001600160401b038111156148c4576148c461513f565b6040519080825280601f01601f1916602001820160405280156148ee576020820181803683370190505b5090508181016020015b600019016f181899199a1a9b1b9c1cb0b131b232b360811b600a86061a8153600a85049450846148f857509392505050565b60006001600160e01b0319821663780e9d6360e01b14806109cd57506109cd82614c96565b6000908152600260205260409020546001600160a01b031690565b808061497e57506001600160a01b03821615155b15614a3757600061498e84614295565b90506001600160a01b038316158015906149ba5750826001600160a01b0316816001600160a01b031614155b80156149cd57506149cb818461407a565b155b156149ed578260405163a9fbf51f60e01b8152600401610a3091906152ad565b8115614a355783856001600160a01b0316826001600160a01b03167f8c5be1e5ebec7d5bd14f71427d1e84f3dd0314c0f7b2291e5b200ac8c7c3b92560405160405180910390a45b505b5050600090815260046020526040902080546001600160a01b0319166001600160a01b0392909216919091179055565b600080614a75858585614ce6565b90506001600160a01b038116614ad257614acd84600880546000838152600960205260408120829055600182018355919091527ff3f7a9fe364faab93b216da50a3214154f22a0a2b415b23a84c8169e8b636ee30155565b614af5565b846001600160a01b0316816001600160a01b031614614af557614af58185614dda565b6001600160a01b038516614b1157614b0c84614e5b565b614302565b846001600160a01b0316816001600160a01b031614614302576143028585614f0a565b614b3e8383614f5a565b61106033600085858561452a565b6060614b5782614295565b506000614b6f60408051602081019091526000815290565b90506000815111614b8f5760405180602001604052806000815250611d7a565b80614b9984614898565b604051602001614baa929190615e26565b6040516020818303038152906040529392505050565b60008072184f03e93ff9f4daa797ed6e38ed64bf6a1f0160401b8310614bff5772184f03e93ff9f4daa797ed6e38ed64bf6a1f0160401b830492506040015b6904ee2d6d415b85acef8160201b8310614c29576904ee2d6d415b85acef8160201b830492506020015b662386f26fc100008310614c4757662386f26fc10000830492506010015b6305f5e1008310614c5f576305f5e100830492506008015b6127108310614c7357612710830492506004015b60648310614c85576064830492506002015b600a83106109cd5760010192915050565b60006001600160e01b031982166380ac58cd60e01b1480614cc757506001600160e01b03198216635b5e139f60e01b145b806109cd57506301ffc9a760e01b6001600160e01b03198316146109cd565b600080614cf28461494f565b90506001600160a01b03831615614d0e57614d0e818486614fbf565b6001600160a01b03811615614d4c57614d2b60008560008061496a565b6001600160a01b038116600090815260036020526040902080546000190190555b6001600160a01b03851615614d7b576001600160a01b0385166000908152600360205260409020805460010190555b60008481526002602052604080822080546001600160a01b0319166001600160a01b0389811691821790925591518793918516917fddf252ad1be2c89b69c2b068fc378daa952ba7f163c4a11628f55a4df523b3ef91a4949350505050565b6000614de583611312565b6000838152600760209081526040808320546001600160a01b0388168452600690925290912091925090818314614e3c57600083815260208281526040808320548584528184208190558352600790915290208290555b6000938452600760209081526040808620869055938552525081205550565b600854600090614e6d90600190615b59565b60008381526009602052604081205460088054939450909284908110614e9557614e95615a01565b906000526020600020015490508060088381548110614eb657614eb6615a01565b6000918252602080832090910192909255828152600990915260408082208490558582528120556008805480614eee57614eee615c33565b6001900381819060005260206000200160009055905550505050565b60006001614f1784611312565b614f219190615b59565b6001600160a01b039093166000908152600660209081526040808320868452825280832085905593825260079052919091209190915550565b6001600160a01b038216614f84576000604051633250574960e11b8152600401610a3091906152ad565b6000614f92838360006142f5565b90506001600160a01b038116156110605760006040516339e3563760e11b8152600401610a3091906152ad565b614fca838383615015565b611060576001600160a01b038316614ff857604051637e27328960e01b815260048101829052602401610a30565b818160405163177e802f60e01b8152600401610a309291906159e8565b60006001600160a01b038316158015906143025750826001600160a01b0316846001600160a01b0316148061504f575061504f848461407a565b806143025750826001600160a01b0316615068836142cd565b6001600160a01b031614949350505050565b508054615086906157ee565b6000825580601f10615096575050565b601f01602090049060005260206000209081019061425e91906150f3565b6040518060e001604052806060815260200160608152602001606081526020016060815260200160008152602001606081526020016000151581525090565b5b8082111561510857600081556001016150f4565b5090565b6001600160e01b03198116811461425e57600080fd5b60006020828403121561513457600080fd5b8135611d7a8161510c565b634e487b7160e01b600052604160045260246000fd5b6000806001600160401b0384111561516f5761516f61513f565b50604051601f19601f85018116603f011681018181106001600160401b038211171561519d5761519d61513f565b6040528381529050808284018510156151b557600080fd5b83836020830137600060208583010152509392505050565b600082601f8301126151de57600080fd5b611d7a83833560208501615155565b6000806040838503121561520057600080fd5b82356001600160401b0381111561521657600080fd5b615222858286016151cd565b95602094909401359450505050565b60005b8381101561524c578181015183820152602001615234565b50506000910152565b6000815180845261526d816020860160208601615231565b601f01601f19169290920160200192915050565b602081526000611d7a6020830184615255565b6000602082840312156152a657600080fd5b5035919050565b6001600160a01b0391909116815260200190565b80356001600160a01b03811681146152d857600080fd5b919050565b600080604083850312156152f057600080fd5b6152f9836152c1565b946020939093013593505050565b60006020828403121561531957600080fd5b81356001600160401b0381111561532f57600080fd5b614302848285016151cd565b60008060006060848603121561535057600080fd5b615359846152c1565b9250615367602085016152c1565b929592945050506040919091013590565b60006020828403121561538a57600080fd5b611d7a826152c1565b60a0815260006153a660a0830188615255565b82810360208401526153b88188615255565b905082810360408401526153cc8187615255565b905084606084015282810360808401526153e68185615255565b98975050505050505050565b6000806040838503121561540557600080fd5b82356001600160401b0381111561541b57600080fd5b615427858286016151cd565b925050615436602084016152c1565b90509250929050565b6000602082016020835280845180835260408501915060408160051b86010192506020860160005b8281101561552457603f198786030184528151805160e0875261548d60e0880182615255565b9050602082015187820360208901526154a68282615255565b915050604082015187820360408901526154c08282615255565b915050606082015187820360608901526154da8282615255565b9150506080820151608088015260a082015187820360a08901526154fe8282615255565b60c093840151151598909301979097525094506020938401939190910190600101615467565b50929695505050505050565b6000806040838503121561554357600080fd5b61554c836152c1565b91506020830135801515811461556157600080fd5b809150509250929050565b6000602082016020835280845180835260408501915060408160051b86010192506020860160005b8281101561552457603f1987860301845281518051608087526155ba6080880182615255565b6020838101516001600160a01b031689820152604080850151908a015260609384015193909801929092525094938401939190910190600101615594565b6000806000806080858703121561560e57600080fd5b615617856152c1565b9350615625602086016152c1565b92506040850135915060608501356001600160401b0381111561564757600080fd5b8501601f8101871361565857600080fd5b61566787823560208401615155565b91505092959194509250565b600080600080600080600060e0888a03121561568e57600080fd5b8735965060208801356001600160401b038111156156ab57600080fd5b6156b78a828b016151cd565b96505060408801356001600160401b038111156156d357600080fd5b6156df8a828b016151cd565b95505060608801356001600160401b038111156156fb57600080fd5b6157078a828b016151cd565b9450506080880135925060a08801356001600160401b0381111561572a57600080fd5b6157368a828b016151cd565b979a969950949793969295929450505060c09091013590565b6000602082016020835280845180835260408501915060408160051b86010192506020860160005b8281101561552457603f19878603018452615793858351615255565b94506020938401939190910190600101615777565b600080604083850312156157bb57600080fd5b6157c4836152c1565b9150615436602084016152c1565b600082516157e4818460208701615231565b9190910192915050565b600181811c9082168061580257607f821691505b60208210810361582257634e487b7160e01b600052602260045260246000fd5b50919050565b601f82111561106057806000526020600020601f840160051c8101602085101561584f5750805b601f840160051c820191505b8181101561463a576000815560010161585b565b600019600383901b1c191660019190911b1790565b81516001600160401b0381111561589d5761589d61513f565b6158b1816158ab84546157ee565b84615828565b6020601f8211600181146158df57600083156158cd5750848201515b6158d7848261586f565b85555061463a565b600084815260208120601f198516915b8281101561590f57878501518255602094850194600190920191016158ef565b508482101561592d5786840151600019600387901b60f8161c191681555b50505050600190811b01905550565b6020808252601b908201527a13db9b1e481bdddb995c881bdc881b585a5b8818dbdb9d1c9858dd602a1b604082015260600190565b60208082526010908201526f105b1c9958591e48185c1c1c9bdd995960821b604082015260600190565b6040815260006159ae6040830185615255565b905060018060a01b03831660208301529392505050565b6001600160a01b0393841681526020810192909252909116604082015260600190565b6001600160a01b03929092168252602082015260400190565b634e487b7160e01b600052603260045260246000fd5b60208082526011908201527015525108185b1c9958591e48189bdd5b99607a1b604082015260600190565b602080825260149082015273151bdad95b881b9bdd081b5a5b9d1959081e595d60621b604082015260600190565b6020808252600f908201526e2737ba103a37b5b2b71037bbb732b960891b604082015260600190565b6020808252601b908201527a546f6b656e206e6f7420696e2062696e6461626c6520706861736560281b604082015260600190565b6000808354615adc816157ee565b600182168015615af35760018114615b0857615b38565b60ff1983168652811515820286019350615b38565b86600052602060002060005b83811015615b3057815488820152600190910190602001615b14565b505081860193505b509195945050505050565b634e487b7160e01b600052601160045260246000fd5b818103818111156109cd576109cd615b43565b818103615b77575050565b615b8182546157ee565b6001600160401b03811115615b9857615b9861513f565b615ba6816158ab84546157ee565b6000601f821160018114615bcb57600083156158cd5750848201546158d7848261586f565b600085815260209020601f19841690600086815260209020845b83811015615c055782860154825560019586019590910190602001615be5565b5085831015615c235781850154600019600388901b60f8161c191681555b5050505050600190811b01905550565b634e487b7160e01b600052603160045260246000fd5b8281526040602082015260006143026040830184615255565b600060018201615c7457615c74615b43565b5060010190565b604081526000615c8e6040830185615255565b90508260208301529392505050565b60008851615caf818460208d01615231565b885190830190615cc3818360208d01615231565b8851910190615cd6818360208c01615231565b018681528551615ced816020808501908a01615231565b0160208101949094525050604082015260600195945050505050565b808201808211156109cd576109cd615b43565b60008351615d2e818460208801615231565b602d60f81b9083019081528351615d4c816001840160208801615231565b01600101949350505050565b60c081526000615d6b60c0830189615255565b8281036020840152615d7d8189615255565b90508281036040840152615d918188615255565b90508281036060840152615da58187615255565b905084608084015282810360a0840152615dbf8185615255565b9998505050505050505050565b6001600160a01b0385811682528416602082015260408101839052608060608201819052600090615dff90830184615255565b9695505050505050565b600060208284031215615e1b57600080fd5b8151611d7a8161510c565b60008351615e38818460208801615231565b835190830190615e4c818360208801615231565b01949350505050565b80820281158282048414176109cd576109cd615b4356fea264697066735822122023cc5929b049734b74e27116636d6aff3996984b1b3fb81a7a15ce07f36254de64736f6c634300081c0033",
  "linkReferences": {},
  "deployedLinkReferences": {}
}